{
	"contracts/vineet/token2_flattened.sol": {
		"TokenMarketplace": {
			"abi": [
				{
					"inputs": [
						{
							"internalType": "address",
							"name": "tokenAddress",
							"type": "address"
						}
					],
					"stateMutability": "nonpayable",
					"type": "constructor"
				},
				{
					"anonymous": false,
					"inputs": [
						{
							"indexed": true,
							"internalType": "address",
							"name": "previousOwner",
							"type": "address"
						},
						{
							"indexed": true,
							"internalType": "address",
							"name": "newOwner",
							"type": "address"
						}
					],
					"name": "OwnershipTransferred",
					"type": "event"
				},
				{
					"inputs": [],
					"name": "getCurrentUSDPrice",
					"outputs": [
						{
							"internalType": "uint256",
							"name": "",
							"type": "uint256"
						}
					],
					"stateMutability": "view",
					"type": "function"
				},
				{
					"inputs": [],
					"name": "getEtherPriceInUSD",
					"outputs": [
						{
							"internalType": "uint256",
							"name": "",
							"type": "uint256"
						}
					],
					"stateMutability": "view",
					"type": "function"
				},
				{
					"inputs": [],
					"name": "owner",
					"outputs": [
						{
							"internalType": "address",
							"name": "",
							"type": "address"
						}
					],
					"stateMutability": "view",
					"type": "function"
				},
				{
					"inputs": [],
					"name": "priceFeed",
					"outputs": [
						{
							"internalType": "contract AggregatorV3Interface",
							"name": "",
							"type": "address"
						}
					],
					"stateMutability": "view",
					"type": "function"
				},
				{
					"inputs": [],
					"name": "renounceOwnership",
					"outputs": [],
					"stateMutability": "nonpayable",
					"type": "function"
				},
				{
					"inputs": [],
					"name": "setTokenPriceFromChainlink",
					"outputs": [],
					"stateMutability": "nonpayable",
					"type": "function"
				},
				{
					"inputs": [],
					"name": "token2",
					"outputs": [
						{
							"internalType": "contract IERC20",
							"name": "",
							"type": "address"
						}
					],
					"stateMutability": "view",
					"type": "function"
				},
				{
					"inputs": [],
					"name": "tokenPriceInUSD",
					"outputs": [
						{
							"internalType": "uint256",
							"name": "",
							"type": "uint256"
						}
					],
					"stateMutability": "view",
					"type": "function"
				},
				{
					"inputs": [
						{
							"internalType": "address",
							"name": "newOwner",
							"type": "address"
						}
					],
					"name": "transferOwnership",
					"outputs": [],
					"stateMutability": "nonpayable",
					"type": "function"
				}
			],
			"devdoc": {
				"kind": "dev",
				"methods": {
					"owner()": {
						"details": "Returns the address of the current owner."
					},
					"renounceOwnership()": {
						"details": "Leaves the contract without owner. It will not be possible to call `onlyOwner` functions. Can only be called by the current owner. NOTE: Renouncing ownership will leave the contract without an owner, thereby disabling any functionality that is only available to the owner."
					},
					"transferOwnership(address)": {
						"details": "Transfers ownership of the contract to a new account (`newOwner`). Can only be called by the current owner."
					}
				},
				"version": 1
			},
			"evm": {
				"assembly": "    /* \"contracts/vineet/token2_flattened.sol\":6977:8413  contract TokenMarketplace is Ownable {... */\n  mstore(0x40, 0x80)\n    /* \"contracts/vineet/token2_flattened.sol\":7128:7322  constructor(address tokenAddress) {... */\n  callvalue\n  dup1\n  iszero\n  tag_1\n  jumpi\n  0x00\n  dup1\n  revert\ntag_1:\n  pop\n  mload(0x40)\n  sub(codesize, bytecodeSize)\n  dup1\n  bytecodeSize\n  dup4\n  codecopy\n  dup2\n  dup2\n  add\n  0x40\n  mstore\n  dup2\n  add\n  swap1\n  tag_2\n  swap2\n  swap1\n  tag_3\n  jump\t// in\ntag_2:\n    /* \"contracts/vineet/token2_flattened.sol\":4589:4621  _transferOwnership(_msgSender()) */\n  tag_7\n    /* \"contracts/vineet/token2_flattened.sol\":4608:4620  _msgSender() */\n  tag_8\n    /* \"contracts/vineet/token2_flattened.sol\":4608:4618  _msgSender */\n  shl(0x20, tag_9)\n    /* \"contracts/vineet/token2_flattened.sol\":4608:4620  _msgSender() */\n  0x20\n  shr\n  jump\t// in\ntag_8:\n    /* \"contracts/vineet/token2_flattened.sol\":4589:4607  _transferOwnership */\n  shl(0x20, tag_10)\n    /* \"contracts/vineet/token2_flattened.sol\":4589:4621  _transferOwnership(_msgSender()) */\n  0x20\n  shr\n  jump\t// in\ntag_7:\n    /* \"contracts/vineet/token2_flattened.sol\":7215:7227  tokenAddress */\n  dup1\n    /* \"contracts/vineet/token2_flattened.sol\":7199:7205  token2 */\n  0x02\n  0x00\n    /* \"contracts/vineet/token2_flattened.sol\":7199:7228  token2 = IERC20(tokenAddress) */\n  0x0100\n  exp\n  dup2\n  sload\n  dup2\n  0xffffffffffffffffffffffffffffffffffffffff\n  mul\n  not\n  and\n  swap1\n  dup4\n  0xffffffffffffffffffffffffffffffffffffffff\n  and\n  mul\n  or\n  swap1\n  sstore\n  pop\n    /* \"contracts/vineet/token2_flattened.sol\":7272:7314  0x694AA1769357215DE4FAC081bf1f309aDC325306 */\n  0x694aa1769357215de4fac081bf1f309adc325306\n    /* \"contracts/vineet/token2_flattened.sol\":7238:7247  priceFeed */\n  0x01\n  0x00\n    /* \"contracts/vineet/token2_flattened.sol\":7238:7315  priceFeed = AggregatorV3Interface(0x694AA1769357215DE4FAC081bf1f309aDC325306) */\n  0x0100\n  exp\n  dup2\n  sload\n  dup2\n  0xffffffffffffffffffffffffffffffffffffffff\n  mul\n  not\n  and\n  swap1\n  dup4\n  0xffffffffffffffffffffffffffffffffffffffff\n  and\n  mul\n  or\n  swap1\n  sstore\n  pop\n    /* \"contracts/vineet/token2_flattened.sol\":7128:7322  constructor(address tokenAddress) {... */\n  pop\n    /* \"contracts/vineet/token2_flattened.sol\":6977:8413  contract TokenMarketplace is Ownable {... */\n  jump(tag_12)\n    /* \"contracts/vineet/token2_flattened.sol\":3457:3553  function _msgSender() internal view virtual returns (address) {... */\ntag_9:\n    /* \"contracts/vineet/token2_flattened.sol\":3510:3517  address */\n  0x00\n    /* \"contracts/vineet/token2_flattened.sol\":3536:3546  msg.sender */\n  caller\n    /* \"contracts/vineet/token2_flattened.sol\":3529:3546  return msg.sender */\n  swap1\n  pop\n    /* \"contracts/vineet/token2_flattened.sol\":3457:3553  function _msgSender() internal view virtual returns (address) {... */\n  swap1\n  jump\t// out\n    /* \"contracts/vineet/token2_flattened.sol\":6079:6266  function _transferOwnership(address newOwner) internal virtual {... */\ntag_10:\n    /* \"contracts/vineet/token2_flattened.sol\":6152:6168  address oldOwner */\n  0x00\n    /* \"contracts/vineet/token2_flattened.sol\":6171:6177  _owner */\n  dup1\n  0x00\n  swap1\n  sload\n  swap1\n  0x0100\n  exp\n  swap1\n  div\n  0xffffffffffffffffffffffffffffffffffffffff\n  and\n    /* \"contracts/vineet/token2_flattened.sol\":6152:6177  address oldOwner = _owner */\n  swap1\n  pop\n    /* \"contracts/vineet/token2_flattened.sol\":6196:6204  newOwner */\n  dup2\n    /* \"contracts/vineet/token2_flattened.sol\":6187:6193  _owner */\n  0x00\n  dup1\n    /* \"contracts/vineet/token2_flattened.sol\":6187:6204  _owner = newOwner */\n  0x0100\n  exp\n  dup2\n  sload\n  dup2\n  0xffffffffffffffffffffffffffffffffffffffff\n  mul\n  not\n  and\n  swap1\n  dup4\n  0xffffffffffffffffffffffffffffffffffffffff\n  and\n  mul\n  or\n  swap1\n  sstore\n  pop\n    /* \"contracts/vineet/token2_flattened.sol\":6250:6258  newOwner */\n  dup2\n    /* \"contracts/vineet/token2_flattened.sol\":6219:6259  OwnershipTransferred(oldOwner, newOwner) */\n  0xffffffffffffffffffffffffffffffffffffffff\n  and\n    /* \"contracts/vineet/token2_flattened.sol\":6240:6248  oldOwner */\n  dup2\n    /* \"contracts/vineet/token2_flattened.sol\":6219:6259  OwnershipTransferred(oldOwner, newOwner) */\n  0xffffffffffffffffffffffffffffffffffffffff\n  and\n  0x8be0079c531659141344cd1fd0a4f28419497f9722a3daafe3b4186f6b6457e0\n  mload(0x40)\n  mload(0x40)\n  dup1\n  swap2\n  sub\n  swap1\n  log3\n    /* \"contracts/vineet/token2_flattened.sol\":6142:6266  {... */\n  pop\n    /* \"contracts/vineet/token2_flattened.sol\":6079:6266  function _transferOwnership(address newOwner) internal virtual {... */\n  pop\n  jump\t// out\n    /* \"#utility.yul\":88:205   */\ntag_16:\n    /* \"#utility.yul\":197:198   */\n  0x00\n    /* \"#utility.yul\":194:195   */\n  dup1\n    /* \"#utility.yul\":187:199   */\n  revert\n    /* \"#utility.yul\":334:460   */\ntag_18:\n    /* \"#utility.yul\":371:378   */\n  0x00\n    /* \"#utility.yul\":411:453   */\n  0xffffffffffffffffffffffffffffffffffffffff\n    /* \"#utility.yul\":404:409   */\n  dup3\n    /* \"#utility.yul\":400:454   */\n  and\n    /* \"#utility.yul\":389:454   */\n  swap1\n  pop\n    /* \"#utility.yul\":334:460   */\n  swap2\n  swap1\n  pop\n  jump\t// out\n    /* \"#utility.yul\":466:562   */\ntag_19:\n    /* \"#utility.yul\":503:510   */\n  0x00\n    /* \"#utility.yul\":532:556   */\n  tag_28\n    /* \"#utility.yul\":550:555   */\n  dup3\n    /* \"#utility.yul\":532:556   */\n  tag_18\n  jump\t// in\ntag_28:\n    /* \"#utility.yul\":521:556   */\n  swap1\n  pop\n    /* \"#utility.yul\":466:562   */\n  swap2\n  swap1\n  pop\n  jump\t// out\n    /* \"#utility.yul\":568:690   */\ntag_20:\n    /* \"#utility.yul\":641:665   */\n  tag_30\n    /* \"#utility.yul\":659:664   */\n  dup2\n    /* \"#utility.yul\":641:665   */\n  tag_19\n  jump\t// in\ntag_30:\n    /* \"#utility.yul\":634:639   */\n  dup2\n    /* \"#utility.yul\":631:666   */\n  eq\n    /* \"#utility.yul\":621:684   */\n  tag_31\n  jumpi\n    /* \"#utility.yul\":680:681   */\n  0x00\n    /* \"#utility.yul\":677:678   */\n  dup1\n    /* \"#utility.yul\":670:682   */\n  revert\n    /* \"#utility.yul\":621:684   */\ntag_31:\n    /* \"#utility.yul\":568:690   */\n  pop\n  jump\t// out\n    /* \"#utility.yul\":696:839   */\ntag_21:\n    /* \"#utility.yul\":753:758   */\n  0x00\n    /* \"#utility.yul\":784:790   */\n  dup2\n    /* \"#utility.yul\":778:791   */\n  mload\n    /* \"#utility.yul\":769:791   */\n  swap1\n  pop\n    /* \"#utility.yul\":800:833   */\n  tag_33\n    /* \"#utility.yul\":827:832   */\n  dup2\n    /* \"#utility.yul\":800:833   */\n  tag_20\n  jump\t// in\ntag_33:\n    /* \"#utility.yul\":696:839   */\n  swap3\n  swap2\n  pop\n  pop\n  jump\t// out\n    /* \"#utility.yul\":845:1196   */\ntag_3:\n    /* \"#utility.yul\":915:921   */\n  0x00\n    /* \"#utility.yul\":964:966   */\n  0x20\n    /* \"#utility.yul\":952:961   */\n  dup3\n    /* \"#utility.yul\":943:950   */\n  dup5\n    /* \"#utility.yul\":939:962   */\n  sub\n    /* \"#utility.yul\":935:967   */\n  slt\n    /* \"#utility.yul\":932:1051   */\n  iszero\n  tag_35\n  jumpi\n    /* \"#utility.yul\":970:1049   */\n  tag_36\n  tag_16\n  jump\t// in\ntag_36:\n    /* \"#utility.yul\":932:1051   */\ntag_35:\n    /* \"#utility.yul\":1090:1091   */\n  0x00\n    /* \"#utility.yul\":1115:1179   */\n  tag_37\n    /* \"#utility.yul\":1171:1178   */\n  dup5\n    /* \"#utility.yul\":1162:1168   */\n  dup3\n    /* \"#utility.yul\":1151:1160   */\n  dup6\n    /* \"#utility.yul\":1147:1169   */\n  add\n    /* \"#utility.yul\":1115:1179   */\n  tag_21\n  jump\t// in\ntag_37:\n    /* \"#utility.yul\":1105:1179   */\n  swap2\n  pop\n    /* \"#utility.yul\":1061:1189   */\n  pop\n    /* \"#utility.yul\":845:1196   */\n  swap3\n  swap2\n  pop\n  pop\n  jump\t// out\n    /* \"contracts/vineet/token2_flattened.sol\":6977:8413  contract TokenMarketplace is Ownable {... */\ntag_12:\n  dataSize(sub_0)\n  dup1\n  dataOffset(sub_0)\n  0x00\n  codecopy\n  0x00\n  return\nstop\n\nsub_0: assembly {\n        /* \"contracts/vineet/token2_flattened.sol\":6977:8413  contract TokenMarketplace is Ownable {... */\n      mstore(0x40, 0x80)\n      callvalue\n      dup1\n      iszero\n      tag_1\n      jumpi\n      0x00\n      dup1\n      revert\n    tag_1:\n      pop\n      jumpi(tag_2, lt(calldatasize, 0x04))\n      shr(0xe0, calldataload(0x00))\n      dup1\n      0x7c8d9cfc\n      gt\n      tag_12\n      jumpi\n      dup1\n      0x7c8d9cfc\n      eq\n      tag_7\n      jumpi\n      dup1\n      0x8da5cb5b\n      eq\n      tag_8\n      jumpi\n      dup1\n      0x9a149dbe\n      eq\n      tag_9\n      jumpi\n      dup1\n      0xf076e0f1\n      eq\n      tag_10\n      jumpi\n      dup1\n      0xf2fde38b\n      eq\n      tag_11\n      jumpi\n      jump(tag_2)\n    tag_12:\n      dup1\n      0x25be124e\n      eq\n      tag_3\n      jumpi\n      dup1\n      0x6543c744\n      eq\n      tag_4\n      jumpi\n      dup1\n      0x715018a6\n      eq\n      tag_5\n      jumpi\n      dup1\n      0x741bef1a\n      eq\n      tag_6\n      jumpi\n    tag_2:\n      0x00\n      dup1\n      revert\n        /* \"contracts/vineet/token2_flattened.sol\":7064:7084  IERC20 public token2 */\n    tag_3:\n      tag_13\n      tag_14\n      jump\t// in\n    tag_13:\n      mload(0x40)\n      tag_15\n      swap2\n      swap1\n      tag_16\n      jump\t// in\n    tag_15:\n      mload(0x40)\n      dup1\n      swap2\n      sub\n      swap1\n      return\n        /* \"contracts/vineet/token2_flattened.sol\":7609:7807  function getEtherPriceInUSD() public view returns (uint256) {... */\n    tag_4:\n      tag_17\n      tag_18\n      jump\t// in\n    tag_17:\n      mload(0x40)\n      tag_19\n      swap2\n      swap1\n      tag_20\n      jump\t// in\n    tag_19:\n      mload(0x40)\n      dup1\n      swap2\n      sub\n      swap1\n      return\n        /* \"contracts/vineet/token2_flattened.sol\":5477:5578  function renounceOwnership() public virtual onlyOwner {... */\n    tag_5:\n      tag_21\n      tag_22\n      jump\t// in\n    tag_21:\n      stop\n        /* \"contracts/vineet/token2_flattened.sol\":7020:7058  AggregatorV3Interface public priceFeed */\n    tag_6:\n      tag_23\n      tag_24\n      jump\t// in\n    tag_23:\n      mload(0x40)\n      tag_25\n      swap2\n      swap1\n      tag_26\n      jump\t// in\n    tag_25:\n      mload(0x40)\n      dup1\n      swap2\n      sub\n      swap1\n      return\n        /* \"contracts/vineet/token2_flattened.sol\":7494:7603  function setTokenPriceFromChainlink() public onlyOwner {... */\n    tag_7:\n      tag_27\n      tag_28\n      jump\t// in\n    tag_27:\n      stop\n        /* \"contracts/vineet/token2_flattened.sol\":4854:4939  function owner() public view virtual returns (address) {... */\n    tag_8:\n      tag_29\n      tag_30\n      jump\t// in\n    tag_29:\n      mload(0x40)\n      tag_31\n      swap2\n      swap1\n      tag_32\n      jump\t// in\n    tag_31:\n      mload(0x40)\n      dup1\n      swap2\n      sub\n      swap1\n      return\n        /* \"contracts/vineet/token2_flattened.sol\":7328:7488  function getCurrentUSDPrice() public view returns (uint256) {... */\n    tag_9:\n      tag_33\n      tag_34\n      jump\t// in\n    tag_33:\n      mload(0x40)\n      tag_35\n      swap2\n      swap1\n      tag_20\n      jump\t// in\n    tag_35:\n      mload(0x40)\n      dup1\n      swap2\n      sub\n      swap1\n      return\n        /* \"contracts/vineet/token2_flattened.sol\":7090:7120  uint256 public tokenPriceInUSD */\n    tag_10:\n      tag_36\n      tag_37\n      jump\t// in\n    tag_36:\n      mload(0x40)\n      tag_38\n      swap2\n      swap1\n      tag_20\n      jump\t// in\n    tag_38:\n      mload(0x40)\n      dup1\n      swap2\n      sub\n      swap1\n      return\n        /* \"contracts/vineet/token2_flattened.sol\":5727:5925  function transferOwnership(address newOwner) public virtual onlyOwner {... */\n    tag_11:\n      tag_39\n      0x04\n      dup1\n      calldatasize\n      sub\n      dup2\n      add\n      swap1\n      tag_40\n      swap2\n      swap1\n      tag_41\n      jump\t// in\n    tag_40:\n      tag_42\n      jump\t// in\n    tag_39:\n      stop\n        /* \"contracts/vineet/token2_flattened.sol\":7064:7084  IERC20 public token2 */\n    tag_14:\n      0x02\n      0x00\n      swap1\n      sload\n      swap1\n      0x0100\n      exp\n      swap1\n      div\n      0xffffffffffffffffffffffffffffffffffffffff\n      and\n      dup2\n      jump\t// out\n        /* \"contracts/vineet/token2_flattened.sol\":7609:7807  function getEtherPriceInUSD() public view returns (uint256) {... */\n    tag_18:\n        /* \"contracts/vineet/token2_flattened.sol\":7660:7667  uint256 */\n      0x00\n        /* \"contracts/vineet/token2_flattened.sol\":7682:7694  int256 price */\n      dup1\n        /* \"contracts/vineet/token2_flattened.sol\":7704:7713  priceFeed */\n      0x01\n      0x00\n      swap1\n      sload\n      swap1\n      0x0100\n      exp\n      swap1\n      div\n      0xffffffffffffffffffffffffffffffffffffffff\n      and\n        /* \"contracts/vineet/token2_flattened.sol\":7704:7729  priceFeed.latestRoundData */\n      0xffffffffffffffffffffffffffffffffffffffff\n      and\n      0xfeaf968c\n        /* \"contracts/vineet/token2_flattened.sol\":7704:7731  priceFeed.latestRoundData() */\n      mload(0x40)\n      dup2\n      0xffffffff\n      and\n      0xe0\n      shl\n      dup2\n      mstore\n      0x04\n      add\n      0xa0\n      mload(0x40)\n      dup1\n      dup4\n      sub\n      dup2\n      dup7\n      gas\n      staticcall\n      iszero\n      dup1\n      iszero\n      tag_45\n      jumpi\n      returndatasize\n      0x00\n      dup1\n      returndatacopy\n      revert(0x00, returndatasize)\n    tag_45:\n      pop\n      pop\n      pop\n      pop\n      mload(0x40)\n      returndatasize\n      not(0x1f)\n      0x1f\n      dup3\n      add\n      and\n      dup3\n      add\n      dup1\n      0x40\n      mstore\n      pop\n      dup2\n      add\n      swap1\n      tag_46\n      swap2\n      swap1\n      tag_47\n      jump\t// in\n    tag_46:\n        /* \"contracts/vineet/token2_flattened.sol\":7679:7731  (, int256 price, , , ) = priceFeed.latestRoundData() */\n      pop\n      pop\n      pop\n      swap2\n      pop\n      pop\n        /* \"contracts/vineet/token2_flattened.sol\":7741:7757  uint256 usdPrice */\n      0x00\n        /* \"contracts/vineet/token2_flattened.sol\":7768:7773  price */\n      dup2\n        /* \"contracts/vineet/token2_flattened.sol\":7741:7774  uint256 usdPrice = uint256(price) */\n      swap1\n      pop\n        /* \"contracts/vineet/token2_flattened.sol\":7792:7800  usdPrice */\n      dup1\n        /* \"contracts/vineet/token2_flattened.sol\":7784:7800  return  usdPrice */\n      swap3\n      pop\n      pop\n      pop\n        /* \"contracts/vineet/token2_flattened.sol\":7609:7807  function getEtherPriceInUSD() public view returns (uint256) {... */\n      swap1\n      jump\t// out\n        /* \"contracts/vineet/token2_flattened.sol\":5477:5578  function renounceOwnership() public virtual onlyOwner {... */\n    tag_22:\n        /* \"contracts/vineet/token2_flattened.sol\":4747:4760  _checkOwner() */\n      tag_49\n        /* \"contracts/vineet/token2_flattened.sol\":4747:4758  _checkOwner */\n      tag_50\n        /* \"contracts/vineet/token2_flattened.sol\":4747:4760  _checkOwner() */\n      jump\t// in\n    tag_49:\n        /* \"contracts/vineet/token2_flattened.sol\":5541:5571  _transferOwnership(address(0)) */\n      tag_52\n        /* \"contracts/vineet/token2_flattened.sol\":5568:5569  0 */\n      0x00\n        /* \"contracts/vineet/token2_flattened.sol\":5541:5559  _transferOwnership */\n      tag_53\n        /* \"contracts/vineet/token2_flattened.sol\":5541:5571  _transferOwnership(address(0)) */\n      jump\t// in\n    tag_52:\n        /* \"contracts/vineet/token2_flattened.sol\":5477:5578  function renounceOwnership() public virtual onlyOwner {... */\n      jump\t// out\n        /* \"contracts/vineet/token2_flattened.sol\":7020:7058  AggregatorV3Interface public priceFeed */\n    tag_24:\n      0x01\n      0x00\n      swap1\n      sload\n      swap1\n      0x0100\n      exp\n      swap1\n      div\n      0xffffffffffffffffffffffffffffffffffffffff\n      and\n      dup2\n      jump\t// out\n        /* \"contracts/vineet/token2_flattened.sol\":7494:7603  function setTokenPriceFromChainlink() public onlyOwner {... */\n    tag_28:\n        /* \"contracts/vineet/token2_flattened.sol\":4747:4760  _checkOwner() */\n      tag_55\n        /* \"contracts/vineet/token2_flattened.sol\":4747:4758  _checkOwner */\n      tag_50\n        /* \"contracts/vineet/token2_flattened.sol\":4747:4760  _checkOwner() */\n      jump\t// in\n    tag_55:\n        /* \"contracts/vineet/token2_flattened.sol\":7576:7596  getEtherPriceInUSD() */\n      tag_57\n        /* \"contracts/vineet/token2_flattened.sol\":7576:7594  getEtherPriceInUSD */\n      tag_18\n        /* \"contracts/vineet/token2_flattened.sol\":7576:7596  getEtherPriceInUSD() */\n      jump\t// in\n    tag_57:\n        /* \"contracts/vineet/token2_flattened.sol\":7558:7573  tokenPriceInUSD */\n      0x03\n        /* \"contracts/vineet/token2_flattened.sol\":7558:7596  tokenPriceInUSD = getEtherPriceInUSD() */\n      dup2\n      swap1\n      sstore\n      pop\n        /* \"contracts/vineet/token2_flattened.sol\":7494:7603  function setTokenPriceFromChainlink() public onlyOwner {... */\n      jump\t// out\n        /* \"contracts/vineet/token2_flattened.sol\":4854:4939  function owner() public view virtual returns (address) {... */\n    tag_30:\n        /* \"contracts/vineet/token2_flattened.sol\":4900:4907  address */\n      0x00\n        /* \"contracts/vineet/token2_flattened.sol\":4926:4932  _owner */\n      dup1\n      0x00\n      swap1\n      sload\n      swap1\n      0x0100\n      exp\n      swap1\n      div\n      0xffffffffffffffffffffffffffffffffffffffff\n      and\n        /* \"contracts/vineet/token2_flattened.sol\":4919:4932  return _owner */\n      swap1\n      pop\n        /* \"contracts/vineet/token2_flattened.sol\":4854:4939  function owner() public view virtual returns (address) {... */\n      swap1\n      jump\t// out\n        /* \"contracts/vineet/token2_flattened.sol\":7328:7488  function getCurrentUSDPrice() public view returns (uint256) {... */\n    tag_34:\n        /* \"contracts/vineet/token2_flattened.sol\":7379:7386  uint256 */\n      0x00\n        /* \"contracts/vineet/token2_flattened.sol\":7401:7413  int256 price */\n      dup1\n        /* \"contracts/vineet/token2_flattened.sol\":7423:7432  priceFeed */\n      0x01\n      0x00\n      swap1\n      sload\n      swap1\n      0x0100\n      exp\n      swap1\n      div\n      0xffffffffffffffffffffffffffffffffffffffff\n      and\n        /* \"contracts/vineet/token2_flattened.sol\":7423:7448  priceFeed.latestRoundData */\n      0xffffffffffffffffffffffffffffffffffffffff\n      and\n      0xfeaf968c\n        /* \"contracts/vineet/token2_flattened.sol\":7423:7450  priceFeed.latestRoundData() */\n      mload(0x40)\n      dup2\n      0xffffffff\n      and\n      0xe0\n      shl\n      dup2\n      mstore\n      0x04\n      add\n      0xa0\n      mload(0x40)\n      dup1\n      dup4\n      sub\n      dup2\n      dup7\n      gas\n      staticcall\n      iszero\n      dup1\n      iszero\n      tag_61\n      jumpi\n      returndatasize\n      0x00\n      dup1\n      returndatacopy\n      revert(0x00, returndatasize)\n    tag_61:\n      pop\n      pop\n      pop\n      pop\n      mload(0x40)\n      returndatasize\n      not(0x1f)\n      0x1f\n      dup3\n      add\n      and\n      dup3\n      add\n      dup1\n      0x40\n      mstore\n      pop\n      dup2\n      add\n      swap1\n      tag_62\n      swap2\n      swap1\n      tag_47\n      jump\t// in\n    tag_62:\n        /* \"contracts/vineet/token2_flattened.sol\":7398:7450  (, int256 price, , , ) = priceFeed.latestRoundData() */\n      pop\n      pop\n      pop\n      swap2\n      pop\n      pop\n        /* \"contracts/vineet/token2_flattened.sol\":7475:7480  price */\n      dup1\n        /* \"contracts/vineet/token2_flattened.sol\":7460:7481  return uint256(price) */\n      swap2\n      pop\n      pop\n        /* \"contracts/vineet/token2_flattened.sol\":7328:7488  function getCurrentUSDPrice() public view returns (uint256) {... */\n      swap1\n      jump\t// out\n        /* \"contracts/vineet/token2_flattened.sol\":7090:7120  uint256 public tokenPriceInUSD */\n    tag_37:\n      sload(0x03)\n      dup2\n      jump\t// out\n        /* \"contracts/vineet/token2_flattened.sol\":5727:5925  function transferOwnership(address newOwner) public virtual onlyOwner {... */\n    tag_42:\n        /* \"contracts/vineet/token2_flattened.sol\":4747:4760  _checkOwner() */\n      tag_64\n        /* \"contracts/vineet/token2_flattened.sol\":4747:4758  _checkOwner */\n      tag_50\n        /* \"contracts/vineet/token2_flattened.sol\":4747:4760  _checkOwner() */\n      jump\t// in\n    tag_64:\n        /* \"contracts/vineet/token2_flattened.sol\":5835:5836  0 */\n      0x00\n        /* \"contracts/vineet/token2_flattened.sol\":5815:5837  newOwner != address(0) */\n      0xffffffffffffffffffffffffffffffffffffffff\n      and\n        /* \"contracts/vineet/token2_flattened.sol\":5815:5823  newOwner */\n      dup2\n        /* \"contracts/vineet/token2_flattened.sol\":5815:5837  newOwner != address(0) */\n      0xffffffffffffffffffffffffffffffffffffffff\n      and\n      sub\n        /* \"contracts/vineet/token2_flattened.sol\":5807:5880  require(newOwner != address(0), \"Ownable: new owner is the zero address\") */\n      tag_66\n      jumpi\n      mload(0x40)\n      0x08c379a000000000000000000000000000000000000000000000000000000000\n      dup2\n      mstore\n      0x04\n      add\n      tag_67\n      swap1\n      tag_68\n      jump\t// in\n    tag_67:\n      mload(0x40)\n      dup1\n      swap2\n      sub\n      swap1\n      revert\n    tag_66:\n        /* \"contracts/vineet/token2_flattened.sol\":5890:5918  _transferOwnership(newOwner) */\n      tag_69\n        /* \"contracts/vineet/token2_flattened.sol\":5909:5917  newOwner */\n      dup2\n        /* \"contracts/vineet/token2_flattened.sol\":5890:5908  _transferOwnership */\n      tag_53\n        /* \"contracts/vineet/token2_flattened.sol\":5890:5918  _transferOwnership(newOwner) */\n      jump\t// in\n    tag_69:\n        /* \"contracts/vineet/token2_flattened.sol\":5727:5925  function transferOwnership(address newOwner) public virtual onlyOwner {... */\n      pop\n      jump\t// out\n        /* \"contracts/vineet/token2_flattened.sol\":5012:5142  function _checkOwner() internal view virtual {... */\n    tag_50:\n        /* \"contracts/vineet/token2_flattened.sol\":5086:5098  _msgSender() */\n      tag_71\n        /* \"contracts/vineet/token2_flattened.sol\":5086:5096  _msgSender */\n      tag_72\n        /* \"contracts/vineet/token2_flattened.sol\":5086:5098  _msgSender() */\n      jump\t// in\n    tag_71:\n        /* \"contracts/vineet/token2_flattened.sol\":5075:5098  owner() == _msgSender() */\n      0xffffffffffffffffffffffffffffffffffffffff\n      and\n        /* \"contracts/vineet/token2_flattened.sol\":5075:5082  owner() */\n      tag_73\n        /* \"contracts/vineet/token2_flattened.sol\":5075:5080  owner */\n      tag_30\n        /* \"contracts/vineet/token2_flattened.sol\":5075:5082  owner() */\n      jump\t// in\n    tag_73:\n        /* \"contracts/vineet/token2_flattened.sol\":5075:5098  owner() == _msgSender() */\n      0xffffffffffffffffffffffffffffffffffffffff\n      and\n      eq\n        /* \"contracts/vineet/token2_flattened.sol\":5067:5135  require(owner() == _msgSender(), \"Ownable: caller is not the owner\") */\n      tag_74\n      jumpi\n      mload(0x40)\n      0x08c379a000000000000000000000000000000000000000000000000000000000\n      dup2\n      mstore\n      0x04\n      add\n      tag_75\n      swap1\n      tag_76\n      jump\t// in\n    tag_75:\n      mload(0x40)\n      dup1\n      swap2\n      sub\n      swap1\n      revert\n    tag_74:\n        /* \"contracts/vineet/token2_flattened.sol\":5012:5142  function _checkOwner() internal view virtual {... */\n      jump\t// out\n        /* \"contracts/vineet/token2_flattened.sol\":6079:6266  function _transferOwnership(address newOwner) internal virtual {... */\n    tag_53:\n        /* \"contracts/vineet/token2_flattened.sol\":6152:6168  address oldOwner */\n      0x00\n        /* \"contracts/vineet/token2_flattened.sol\":6171:6177  _owner */\n      dup1\n      0x00\n      swap1\n      sload\n      swap1\n      0x0100\n      exp\n      swap1\n      div\n      0xffffffffffffffffffffffffffffffffffffffff\n      and\n        /* \"contracts/vineet/token2_flattened.sol\":6152:6177  address oldOwner = _owner */\n      swap1\n      pop\n        /* \"contracts/vineet/token2_flattened.sol\":6196:6204  newOwner */\n      dup2\n        /* \"contracts/vineet/token2_flattened.sol\":6187:6193  _owner */\n      0x00\n      dup1\n        /* \"contracts/vineet/token2_flattened.sol\":6187:6204  _owner = newOwner */\n      0x0100\n      exp\n      dup2\n      sload\n      dup2\n      0xffffffffffffffffffffffffffffffffffffffff\n      mul\n      not\n      and\n      swap1\n      dup4\n      0xffffffffffffffffffffffffffffffffffffffff\n      and\n      mul\n      or\n      swap1\n      sstore\n      pop\n        /* \"contracts/vineet/token2_flattened.sol\":6250:6258  newOwner */\n      dup2\n        /* \"contracts/vineet/token2_flattened.sol\":6219:6259  OwnershipTransferred(oldOwner, newOwner) */\n      0xffffffffffffffffffffffffffffffffffffffff\n      and\n        /* \"contracts/vineet/token2_flattened.sol\":6240:6248  oldOwner */\n      dup2\n        /* \"contracts/vineet/token2_flattened.sol\":6219:6259  OwnershipTransferred(oldOwner, newOwner) */\n      0xffffffffffffffffffffffffffffffffffffffff\n      and\n      0x8be0079c531659141344cd1fd0a4f28419497f9722a3daafe3b4186f6b6457e0\n      mload(0x40)\n      mload(0x40)\n      dup1\n      swap2\n      sub\n      swap1\n      log3\n        /* \"contracts/vineet/token2_flattened.sol\":6142:6266  {... */\n      pop\n        /* \"contracts/vineet/token2_flattened.sol\":6079:6266  function _transferOwnership(address newOwner) internal virtual {... */\n      pop\n      jump\t// out\n        /* \"contracts/vineet/token2_flattened.sol\":3457:3553  function _msgSender() internal view virtual returns (address) {... */\n    tag_72:\n        /* \"contracts/vineet/token2_flattened.sol\":3510:3517  address */\n      0x00\n        /* \"contracts/vineet/token2_flattened.sol\":3536:3546  msg.sender */\n      caller\n        /* \"contracts/vineet/token2_flattened.sol\":3529:3546  return msg.sender */\n      swap1\n      pop\n        /* \"contracts/vineet/token2_flattened.sol\":3457:3553  function _msgSender() internal view virtual returns (address) {... */\n      swap1\n      jump\t// out\n        /* \"#utility.yul\":7:133   */\n    tag_79:\n        /* \"#utility.yul\":44:51   */\n      0x00\n        /* \"#utility.yul\":84:126   */\n      0xffffffffffffffffffffffffffffffffffffffff\n        /* \"#utility.yul\":77:82   */\n      dup3\n        /* \"#utility.yul\":73:127   */\n      and\n        /* \"#utility.yul\":62:127   */\n      swap1\n      pop\n        /* \"#utility.yul\":7:133   */\n      swap2\n      swap1\n      pop\n      jump\t// out\n        /* \"#utility.yul\":139:199   */\n    tag_80:\n        /* \"#utility.yul\":167:170   */\n      0x00\n        /* \"#utility.yul\":188:193   */\n      dup2\n        /* \"#utility.yul\":181:193   */\n      swap1\n      pop\n        /* \"#utility.yul\":139:199   */\n      swap2\n      swap1\n      pop\n      jump\t// out\n        /* \"#utility.yul\":205:347   */\n    tag_81:\n        /* \"#utility.yul\":255:264   */\n      0x00\n        /* \"#utility.yul\":288:341   */\n      tag_113\n        /* \"#utility.yul\":306:340   */\n      tag_114\n        /* \"#utility.yul\":315:339   */\n      tag_115\n        /* \"#utility.yul\":333:338   */\n      dup5\n        /* \"#utility.yul\":315:339   */\n      tag_79\n      jump\t// in\n    tag_115:\n        /* \"#utility.yul\":306:340   */\n      tag_80\n      jump\t// in\n    tag_114:\n        /* \"#utility.yul\":288:341   */\n      tag_79\n      jump\t// in\n    tag_113:\n        /* \"#utility.yul\":275:341   */\n      swap1\n      pop\n        /* \"#utility.yul\":205:347   */\n      swap2\n      swap1\n      pop\n      jump\t// out\n        /* \"#utility.yul\":353:479   */\n    tag_82:\n        /* \"#utility.yul\":403:412   */\n      0x00\n        /* \"#utility.yul\":436:473   */\n      tag_117\n        /* \"#utility.yul\":467:472   */\n      dup3\n        /* \"#utility.yul\":436:473   */\n      tag_81\n      jump\t// in\n    tag_117:\n        /* \"#utility.yul\":423:473   */\n      swap1\n      pop\n        /* \"#utility.yul\":353:479   */\n      swap2\n      swap1\n      pop\n      jump\t// out\n        /* \"#utility.yul\":485:624   */\n    tag_83:\n        /* \"#utility.yul\":548:557   */\n      0x00\n        /* \"#utility.yul\":581:618   */\n      tag_119\n        /* \"#utility.yul\":612:617   */\n      dup3\n        /* \"#utility.yul\":581:618   */\n      tag_82\n      jump\t// in\n    tag_119:\n        /* \"#utility.yul\":568:618   */\n      swap1\n      pop\n        /* \"#utility.yul\":485:624   */\n      swap2\n      swap1\n      pop\n      jump\t// out\n        /* \"#utility.yul\":630:787   */\n    tag_84:\n        /* \"#utility.yul\":730:780   */\n      tag_121\n        /* \"#utility.yul\":774:779   */\n      dup2\n        /* \"#utility.yul\":730:780   */\n      tag_83\n      jump\t// in\n    tag_121:\n        /* \"#utility.yul\":725:728   */\n      dup3\n        /* \"#utility.yul\":718:781   */\n      mstore\n        /* \"#utility.yul\":630:787   */\n      pop\n      pop\n      jump\t// out\n        /* \"#utility.yul\":793:1041   */\n    tag_16:\n        /* \"#utility.yul\":899:903   */\n      0x00\n        /* \"#utility.yul\":937:939   */\n      0x20\n        /* \"#utility.yul\":926:935   */\n      dup3\n        /* \"#utility.yul\":922:940   */\n      add\n        /* \"#utility.yul\":914:940   */\n      swap1\n      pop\n        /* \"#utility.yul\":950:1034   */\n      tag_123\n        /* \"#utility.yul\":1031:1032   */\n      0x00\n        /* \"#utility.yul\":1020:1029   */\n      dup4\n        /* \"#utility.yul\":1016:1033   */\n      add\n        /* \"#utility.yul\":1007:1013   */\n      dup5\n        /* \"#utility.yul\":950:1034   */\n      tag_84\n      jump\t// in\n    tag_123:\n        /* \"#utility.yul\":793:1041   */\n      swap3\n      swap2\n      pop\n      pop\n      jump\t// out\n        /* \"#utility.yul\":1047:1124   */\n    tag_85:\n        /* \"#utility.yul\":1084:1091   */\n      0x00\n        /* \"#utility.yul\":1113:1118   */\n      dup2\n        /* \"#utility.yul\":1102:1118   */\n      swap1\n      pop\n        /* \"#utility.yul\":1047:1124   */\n      swap2\n      swap1\n      pop\n      jump\t// out\n        /* \"#utility.yul\":1130:1248   */\n    tag_86:\n        /* \"#utility.yul\":1217:1241   */\n      tag_126\n        /* \"#utility.yul\":1235:1240   */\n      dup2\n        /* \"#utility.yul\":1217:1241   */\n      tag_85\n      jump\t// in\n    tag_126:\n        /* \"#utility.yul\":1212:1215   */\n      dup3\n        /* \"#utility.yul\":1205:1242   */\n      mstore\n        /* \"#utility.yul\":1130:1248   */\n      pop\n      pop\n      jump\t// out\n        /* \"#utility.yul\":1254:1476   */\n    tag_20:\n        /* \"#utility.yul\":1347:1351   */\n      0x00\n        /* \"#utility.yul\":1385:1387   */\n      0x20\n        /* \"#utility.yul\":1374:1383   */\n      dup3\n        /* \"#utility.yul\":1370:1388   */\n      add\n        /* \"#utility.yul\":1362:1388   */\n      swap1\n      pop\n        /* \"#utility.yul\":1398:1469   */\n      tag_128\n        /* \"#utility.yul\":1466:1467   */\n      0x00\n        /* \"#utility.yul\":1455:1464   */\n      dup4\n        /* \"#utility.yul\":1451:1468   */\n      add\n        /* \"#utility.yul\":1442:1448   */\n      dup5\n        /* \"#utility.yul\":1398:1469   */\n      tag_86\n      jump\t// in\n    tag_128:\n        /* \"#utility.yul\":1254:1476   */\n      swap3\n      swap2\n      pop\n      pop\n      jump\t// out\n        /* \"#utility.yul\":1482:1637   */\n    tag_87:\n        /* \"#utility.yul\":1561:1570   */\n      0x00\n        /* \"#utility.yul\":1594:1631   */\n      tag_130\n        /* \"#utility.yul\":1625:1630   */\n      dup3\n        /* \"#utility.yul\":1594:1631   */\n      tag_82\n      jump\t// in\n    tag_130:\n        /* \"#utility.yul\":1581:1631   */\n      swap1\n      pop\n        /* \"#utility.yul\":1482:1637   */\n      swap2\n      swap1\n      pop\n      jump\t// out\n        /* \"#utility.yul\":1643:1832   */\n    tag_88:\n        /* \"#utility.yul\":1759:1825   */\n      tag_132\n        /* \"#utility.yul\":1819:1824   */\n      dup2\n        /* \"#utility.yul\":1759:1825   */\n      tag_87\n      jump\t// in\n    tag_132:\n        /* \"#utility.yul\":1754:1757   */\n      dup3\n        /* \"#utility.yul\":1747:1826   */\n      mstore\n        /* \"#utility.yul\":1643:1832   */\n      pop\n      pop\n      jump\t// out\n        /* \"#utility.yul\":1838:2118   */\n    tag_26:\n        /* \"#utility.yul\":1960:1964   */\n      0x00\n        /* \"#utility.yul\":1998:2000   */\n      0x20\n        /* \"#utility.yul\":1987:1996   */\n      dup3\n        /* \"#utility.yul\":1983:2001   */\n      add\n        /* \"#utility.yul\":1975:2001   */\n      swap1\n      pop\n        /* \"#utility.yul\":2011:2111   */\n      tag_134\n        /* \"#utility.yul\":2108:2109   */\n      0x00\n        /* \"#utility.yul\":2097:2106   */\n      dup4\n        /* \"#utility.yul\":2093:2110   */\n      add\n        /* \"#utility.yul\":2084:2090   */\n      dup5\n        /* \"#utility.yul\":2011:2111   */\n      tag_88\n      jump\t// in\n    tag_134:\n        /* \"#utility.yul\":1838:2118   */\n      swap3\n      swap2\n      pop\n      pop\n      jump\t// out\n        /* \"#utility.yul\":2124:2220   */\n    tag_89:\n        /* \"#utility.yul\":2161:2168   */\n      0x00\n        /* \"#utility.yul\":2190:2214   */\n      tag_136\n        /* \"#utility.yul\":2208:2213   */\n      dup3\n        /* \"#utility.yul\":2190:2214   */\n      tag_79\n      jump\t// in\n    tag_136:\n        /* \"#utility.yul\":2179:2214   */\n      swap1\n      pop\n        /* \"#utility.yul\":2124:2220   */\n      swap2\n      swap1\n      pop\n      jump\t// out\n        /* \"#utility.yul\":2226:2344   */\n    tag_90:\n        /* \"#utility.yul\":2313:2337   */\n      tag_138\n        /* \"#utility.yul\":2331:2336   */\n      dup2\n        /* \"#utility.yul\":2313:2337   */\n      tag_89\n      jump\t// in\n    tag_138:\n        /* \"#utility.yul\":2308:2311   */\n      dup3\n        /* \"#utility.yul\":2301:2338   */\n      mstore\n        /* \"#utility.yul\":2226:2344   */\n      pop\n      pop\n      jump\t// out\n        /* \"#utility.yul\":2350:2572   */\n    tag_32:\n        /* \"#utility.yul\":2443:2447   */\n      0x00\n        /* \"#utility.yul\":2481:2483   */\n      0x20\n        /* \"#utility.yul\":2470:2479   */\n      dup3\n        /* \"#utility.yul\":2466:2484   */\n      add\n        /* \"#utility.yul\":2458:2484   */\n      swap1\n      pop\n        /* \"#utility.yul\":2494:2565   */\n      tag_140\n        /* \"#utility.yul\":2562:2563   */\n      0x00\n        /* \"#utility.yul\":2551:2560   */\n      dup4\n        /* \"#utility.yul\":2547:2564   */\n      add\n        /* \"#utility.yul\":2538:2544   */\n      dup5\n        /* \"#utility.yul\":2494:2565   */\n      tag_90\n      jump\t// in\n    tag_140:\n        /* \"#utility.yul\":2350:2572   */\n      swap3\n      swap2\n      pop\n      pop\n      jump\t// out\n        /* \"#utility.yul\":2659:2776   */\n    tag_92:\n        /* \"#utility.yul\":2768:2769   */\n      0x00\n        /* \"#utility.yul\":2765:2766   */\n      dup1\n        /* \"#utility.yul\":2758:2770   */\n      revert\n        /* \"#utility.yul\":2905:3027   */\n    tag_94:\n        /* \"#utility.yul\":2978:3002   */\n      tag_145\n        /* \"#utility.yul\":2996:3001   */\n      dup2\n        /* \"#utility.yul\":2978:3002   */\n      tag_89\n      jump\t// in\n    tag_145:\n        /* \"#utility.yul\":2971:2976   */\n      dup2\n        /* \"#utility.yul\":2968:3003   */\n      eq\n        /* \"#utility.yul\":2958:3021   */\n      tag_146\n      jumpi\n        /* \"#utility.yul\":3017:3018   */\n      0x00\n        /* \"#utility.yul\":3014:3015   */\n      dup1\n        /* \"#utility.yul\":3007:3019   */\n      revert\n        /* \"#utility.yul\":2958:3021   */\n    tag_146:\n        /* \"#utility.yul\":2905:3027   */\n      pop\n      jump\t// out\n        /* \"#utility.yul\":3033:3172   */\n    tag_95:\n        /* \"#utility.yul\":3079:3084   */\n      0x00\n        /* \"#utility.yul\":3117:3123   */\n      dup2\n        /* \"#utility.yul\":3104:3124   */\n      calldataload\n        /* \"#utility.yul\":3095:3124   */\n      swap1\n      pop\n        /* \"#utility.yul\":3133:3166   */\n      tag_148\n        /* \"#utility.yul\":3160:3165   */\n      dup2\n        /* \"#utility.yul\":3133:3166   */\n      tag_94\n      jump\t// in\n    tag_148:\n        /* \"#utility.yul\":3033:3172   */\n      swap3\n      swap2\n      pop\n      pop\n      jump\t// out\n        /* \"#utility.yul\":3178:3507   */\n    tag_41:\n        /* \"#utility.yul\":3237:3243   */\n      0x00\n        /* \"#utility.yul\":3286:3288   */\n      0x20\n        /* \"#utility.yul\":3274:3283   */\n      dup3\n        /* \"#utility.yul\":3265:3272   */\n      dup5\n        /* \"#utility.yul\":3261:3284   */\n      sub\n        /* \"#utility.yul\":3257:3289   */\n      slt\n        /* \"#utility.yul\":3254:3373   */\n      iszero\n      tag_150\n      jumpi\n        /* \"#utility.yul\":3292:3371   */\n      tag_151\n      tag_92\n      jump\t// in\n    tag_151:\n        /* \"#utility.yul\":3254:3373   */\n    tag_150:\n        /* \"#utility.yul\":3412:3413   */\n      0x00\n        /* \"#utility.yul\":3437:3490   */\n      tag_152\n        /* \"#utility.yul\":3482:3489   */\n      dup5\n        /* \"#utility.yul\":3473:3479   */\n      dup3\n        /* \"#utility.yul\":3462:3471   */\n      dup6\n        /* \"#utility.yul\":3458:3480   */\n      add\n        /* \"#utility.yul\":3437:3490   */\n      tag_95\n      jump\t// in\n    tag_152:\n        /* \"#utility.yul\":3427:3490   */\n      swap2\n      pop\n        /* \"#utility.yul\":3383:3500   */\n      pop\n        /* \"#utility.yul\":3178:3507   */\n      swap3\n      swap2\n      pop\n      pop\n      jump\t// out\n        /* \"#utility.yul\":3513:3618   */\n    tag_96:\n        /* \"#utility.yul\":3549:3556   */\n      0x00\n        /* \"#utility.yul\":3589:3611   */\n      0xffffffffffffffffffff\n        /* \"#utility.yul\":3582:3587   */\n      dup3\n        /* \"#utility.yul\":3578:3612   */\n      and\n        /* \"#utility.yul\":3567:3612   */\n      swap1\n      pop\n        /* \"#utility.yul\":3513:3618   */\n      swap2\n      swap1\n      pop\n      jump\t// out\n        /* \"#utility.yul\":3624:3744   */\n    tag_97:\n        /* \"#utility.yul\":3696:3719   */\n      tag_155\n        /* \"#utility.yul\":3713:3718   */\n      dup2\n        /* \"#utility.yul\":3696:3719   */\n      tag_96\n      jump\t// in\n    tag_155:\n        /* \"#utility.yul\":3689:3694   */\n      dup2\n        /* \"#utility.yul\":3686:3720   */\n      eq\n        /* \"#utility.yul\":3676:3738   */\n      tag_156\n      jumpi\n        /* \"#utility.yul\":3734:3735   */\n      0x00\n        /* \"#utility.yul\":3731:3732   */\n      dup1\n        /* \"#utility.yul\":3724:3736   */\n      revert\n        /* \"#utility.yul\":3676:3738   */\n    tag_156:\n        /* \"#utility.yul\":3624:3744   */\n      pop\n      jump\t// out\n        /* \"#utility.yul\":3750:3891   */\n    tag_98:\n        /* \"#utility.yul\":3806:3811   */\n      0x00\n        /* \"#utility.yul\":3837:3843   */\n      dup2\n        /* \"#utility.yul\":3831:3844   */\n      mload\n        /* \"#utility.yul\":3822:3844   */\n      swap1\n      pop\n        /* \"#utility.yul\":3853:3885   */\n      tag_158\n        /* \"#utility.yul\":3879:3884   */\n      dup2\n        /* \"#utility.yul\":3853:3885   */\n      tag_97\n      jump\t// in\n    tag_158:\n        /* \"#utility.yul\":3750:3891   */\n      swap3\n      swap2\n      pop\n      pop\n      jump\t// out\n        /* \"#utility.yul\":3897:3973   */\n    tag_99:\n        /* \"#utility.yul\":3933:3940   */\n      0x00\n        /* \"#utility.yul\":3962:3967   */\n      dup2\n        /* \"#utility.yul\":3951:3967   */\n      swap1\n      pop\n        /* \"#utility.yul\":3897:3973   */\n      swap2\n      swap1\n      pop\n      jump\t// out\n        /* \"#utility.yul\":3979:4099   */\n    tag_100:\n        /* \"#utility.yul\":4051:4074   */\n      tag_161\n        /* \"#utility.yul\":4068:4073   */\n      dup2\n        /* \"#utility.yul\":4051:4074   */\n      tag_99\n      jump\t// in\n    tag_161:\n        /* \"#utility.yul\":4044:4049   */\n      dup2\n        /* \"#utility.yul\":4041:4075   */\n      eq\n        /* \"#utility.yul\":4031:4093   */\n      tag_162\n      jumpi\n        /* \"#utility.yul\":4089:4090   */\n      0x00\n        /* \"#utility.yul\":4086:4087   */\n      dup1\n        /* \"#utility.yul\":4079:4091   */\n      revert\n        /* \"#utility.yul\":4031:4093   */\n    tag_162:\n        /* \"#utility.yul\":3979:4099   */\n      pop\n      jump\t// out\n        /* \"#utility.yul\":4105:4246   */\n    tag_101:\n        /* \"#utility.yul\":4161:4166   */\n      0x00\n        /* \"#utility.yul\":4192:4198   */\n      dup2\n        /* \"#utility.yul\":4186:4199   */\n      mload\n        /* \"#utility.yul\":4177:4199   */\n      swap1\n      pop\n        /* \"#utility.yul\":4208:4240   */\n      tag_164\n        /* \"#utility.yul\":4234:4239   */\n      dup2\n        /* \"#utility.yul\":4208:4240   */\n      tag_100\n      jump\t// in\n    tag_164:\n        /* \"#utility.yul\":4105:4246   */\n      swap3\n      swap2\n      pop\n      pop\n      jump\t// out\n        /* \"#utility.yul\":4252:4374   */\n    tag_102:\n        /* \"#utility.yul\":4325:4349   */\n      tag_166\n        /* \"#utility.yul\":4343:4348   */\n      dup2\n        /* \"#utility.yul\":4325:4349   */\n      tag_85\n      jump\t// in\n    tag_166:\n        /* \"#utility.yul\":4318:4323   */\n      dup2\n        /* \"#utility.yul\":4315:4350   */\n      eq\n        /* \"#utility.yul\":4305:4368   */\n      tag_167\n      jumpi\n        /* \"#utility.yul\":4364:4365   */\n      0x00\n        /* \"#utility.yul\":4361:4362   */\n      dup1\n        /* \"#utility.yul\":4354:4366   */\n      revert\n        /* \"#utility.yul\":4305:4368   */\n    tag_167:\n        /* \"#utility.yul\":4252:4374   */\n      pop\n      jump\t// out\n        /* \"#utility.yul\":4380:4523   */\n    tag_103:\n        /* \"#utility.yul\":4437:4442   */\n      0x00\n        /* \"#utility.yul\":4468:4474   */\n      dup2\n        /* \"#utility.yul\":4462:4475   */\n      mload\n        /* \"#utility.yul\":4453:4475   */\n      swap1\n      pop\n        /* \"#utility.yul\":4484:4517   */\n      tag_169\n        /* \"#utility.yul\":4511:4516   */\n      dup2\n        /* \"#utility.yul\":4484:4517   */\n      tag_102\n      jump\t// in\n    tag_169:\n        /* \"#utility.yul\":4380:4523   */\n      swap3\n      swap2\n      pop\n      pop\n      jump\t// out\n        /* \"#utility.yul\":4529:5500   */\n    tag_47:\n        /* \"#utility.yul\":4632:4638   */\n      0x00\n        /* \"#utility.yul\":4640:4646   */\n      dup1\n        /* \"#utility.yul\":4648:4654   */\n      0x00\n        /* \"#utility.yul\":4656:4662   */\n      dup1\n        /* \"#utility.yul\":4664:4670   */\n      0x00\n        /* \"#utility.yul\":4713:4716   */\n      0xa0\n        /* \"#utility.yul\":4701:4710   */\n      dup7\n        /* \"#utility.yul\":4692:4699   */\n      dup9\n        /* \"#utility.yul\":4688:4711   */\n      sub\n        /* \"#utility.yul\":4684:4717   */\n      slt\n        /* \"#utility.yul\":4681:4801   */\n      iszero\n      tag_171\n      jumpi\n        /* \"#utility.yul\":4720:4799   */\n      tag_172\n      tag_92\n      jump\t// in\n    tag_172:\n        /* \"#utility.yul\":4681:4801   */\n    tag_171:\n        /* \"#utility.yul\":4840:4841   */\n      0x00\n        /* \"#utility.yul\":4865:4928   */\n      tag_173\n        /* \"#utility.yul\":4920:4927   */\n      dup9\n        /* \"#utility.yul\":4911:4917   */\n      dup3\n        /* \"#utility.yul\":4900:4909   */\n      dup10\n        /* \"#utility.yul\":4896:4918   */\n      add\n        /* \"#utility.yul\":4865:4928   */\n      tag_98\n      jump\t// in\n    tag_173:\n        /* \"#utility.yul\":4855:4928   */\n      swap6\n      pop\n        /* \"#utility.yul\":4811:4938   */\n      pop\n        /* \"#utility.yul\":4977:4979   */\n      0x20\n        /* \"#utility.yul\":5003:5066   */\n      tag_174\n        /* \"#utility.yul\":5058:5065   */\n      dup9\n        /* \"#utility.yul\":5049:5055   */\n      dup3\n        /* \"#utility.yul\":5038:5047   */\n      dup10\n        /* \"#utility.yul\":5034:5056   */\n      add\n        /* \"#utility.yul\":5003:5066   */\n      tag_101\n      jump\t// in\n    tag_174:\n        /* \"#utility.yul\":4993:5066   */\n      swap5\n      pop\n        /* \"#utility.yul\":4948:5076   */\n      pop\n        /* \"#utility.yul\":5115:5117   */\n      0x40\n        /* \"#utility.yul\":5141:5205   */\n      tag_175\n        /* \"#utility.yul\":5197:5204   */\n      dup9\n        /* \"#utility.yul\":5188:5194   */\n      dup3\n        /* \"#utility.yul\":5177:5186   */\n      dup10\n        /* \"#utility.yul\":5173:5195   */\n      add\n        /* \"#utility.yul\":5141:5205   */\n      tag_103\n      jump\t// in\n    tag_175:\n        /* \"#utility.yul\":5131:5205   */\n      swap4\n      pop\n        /* \"#utility.yul\":5086:5215   */\n      pop\n        /* \"#utility.yul\":5254:5256   */\n      0x60\n        /* \"#utility.yul\":5280:5344   */\n      tag_176\n        /* \"#utility.yul\":5336:5343   */\n      dup9\n        /* \"#utility.yul\":5327:5333   */\n      dup3\n        /* \"#utility.yul\":5316:5325   */\n      dup10\n        /* \"#utility.yul\":5312:5334   */\n      add\n        /* \"#utility.yul\":5280:5344   */\n      tag_103\n      jump\t// in\n    tag_176:\n        /* \"#utility.yul\":5270:5344   */\n      swap3\n      pop\n        /* \"#utility.yul\":5225:5354   */\n      pop\n        /* \"#utility.yul\":5393:5396   */\n      0x80\n        /* \"#utility.yul\":5420:5483   */\n      tag_177\n        /* \"#utility.yul\":5475:5482   */\n      dup9\n        /* \"#utility.yul\":5466:5472   */\n      dup3\n        /* \"#utility.yul\":5455:5464   */\n      dup10\n        /* \"#utility.yul\":5451:5473   */\n      add\n        /* \"#utility.yul\":5420:5483   */\n      tag_98\n      jump\t// in\n    tag_177:\n        /* \"#utility.yul\":5410:5483   */\n      swap2\n      pop\n        /* \"#utility.yul\":5364:5493   */\n      pop\n        /* \"#utility.yul\":4529:5500   */\n      swap3\n      swap6\n      pop\n      swap3\n      swap6\n      swap1\n      swap4\n      pop\n      jump\t// out\n        /* \"#utility.yul\":5506:5675   */\n    tag_104:\n        /* \"#utility.yul\":5590:5601   */\n      0x00\n        /* \"#utility.yul\":5624:5630   */\n      dup3\n        /* \"#utility.yul\":5619:5622   */\n      dup3\n        /* \"#utility.yul\":5612:5631   */\n      mstore\n        /* \"#utility.yul\":5664:5668   */\n      0x20\n        /* \"#utility.yul\":5659:5662   */\n      dup3\n        /* \"#utility.yul\":5655:5669   */\n      add\n        /* \"#utility.yul\":5640:5669   */\n      swap1\n      pop\n        /* \"#utility.yul\":5506:5675   */\n      swap3\n      swap2\n      pop\n      pop\n      jump\t// out\n        /* \"#utility.yul\":5681:5906   */\n    tag_105:\n        /* \"#utility.yul\":5821:5855   */\n      0x4f776e61626c653a206e6577206f776e657220697320746865207a65726f2061\n        /* \"#utility.yul\":5817:5818   */\n      0x00\n        /* \"#utility.yul\":5809:5815   */\n      dup3\n        /* \"#utility.yul\":5805:5819   */\n      add\n        /* \"#utility.yul\":5798:5856   */\n      mstore\n        /* \"#utility.yul\":5890:5898   */\n      0x6464726573730000000000000000000000000000000000000000000000000000\n        /* \"#utility.yul\":5885:5887   */\n      0x20\n        /* \"#utility.yul\":5877:5883   */\n      dup3\n        /* \"#utility.yul\":5873:5888   */\n      add\n        /* \"#utility.yul\":5866:5899   */\n      mstore\n        /* \"#utility.yul\":5681:5906   */\n      pop\n      jump\t// out\n        /* \"#utility.yul\":5912:6278   */\n    tag_106:\n        /* \"#utility.yul\":6054:6057   */\n      0x00\n        /* \"#utility.yul\":6075:6142   */\n      tag_181\n        /* \"#utility.yul\":6139:6141   */\n      0x26\n        /* \"#utility.yul\":6134:6137   */\n      dup4\n        /* \"#utility.yul\":6075:6142   */\n      tag_104\n      jump\t// in\n    tag_181:\n        /* \"#utility.yul\":6068:6142   */\n      swap2\n      pop\n        /* \"#utility.yul\":6151:6244   */\n      tag_182\n        /* \"#utility.yul\":6240:6243   */\n      dup3\n        /* \"#utility.yul\":6151:6244   */\n      tag_105\n      jump\t// in\n    tag_182:\n        /* \"#utility.yul\":6269:6271   */\n      0x40\n        /* \"#utility.yul\":6264:6267   */\n      dup3\n        /* \"#utility.yul\":6260:6272   */\n      add\n        /* \"#utility.yul\":6253:6272   */\n      swap1\n      pop\n        /* \"#utility.yul\":5912:6278   */\n      swap2\n      swap1\n      pop\n      jump\t// out\n        /* \"#utility.yul\":6284:6703   */\n    tag_68:\n        /* \"#utility.yul\":6450:6454   */\n      0x00\n        /* \"#utility.yul\":6488:6490   */\n      0x20\n        /* \"#utility.yul\":6477:6486   */\n      dup3\n        /* \"#utility.yul\":6473:6491   */\n      add\n        /* \"#utility.yul\":6465:6491   */\n      swap1\n      pop\n        /* \"#utility.yul\":6537:6546   */\n      dup2\n        /* \"#utility.yul\":6531:6535   */\n      dup2\n        /* \"#utility.yul\":6527:6547   */\n      sub\n        /* \"#utility.yul\":6523:6524   */\n      0x00\n        /* \"#utility.yul\":6512:6521   */\n      dup4\n        /* \"#utility.yul\":6508:6525   */\n      add\n        /* \"#utility.yul\":6501:6548   */\n      mstore\n        /* \"#utility.yul\":6565:6696   */\n      tag_184\n        /* \"#utility.yul\":6691:6695   */\n      dup2\n        /* \"#utility.yul\":6565:6696   */\n      tag_106\n      jump\t// in\n    tag_184:\n        /* \"#utility.yul\":6557:6696   */\n      swap1\n      pop\n        /* \"#utility.yul\":6284:6703   */\n      swap2\n      swap1\n      pop\n      jump\t// out\n        /* \"#utility.yul\":6709:6891   */\n    tag_107:\n        /* \"#utility.yul\":6849:6883   */\n      0x4f776e61626c653a2063616c6c6572206973206e6f7420746865206f776e6572\n        /* \"#utility.yul\":6845:6846   */\n      0x00\n        /* \"#utility.yul\":6837:6843   */\n      dup3\n        /* \"#utility.yul\":6833:6847   */\n      add\n        /* \"#utility.yul\":6826:6884   */\n      mstore\n        /* \"#utility.yul\":6709:6891   */\n      pop\n      jump\t// out\n        /* \"#utility.yul\":6897:7263   */\n    tag_108:\n        /* \"#utility.yul\":7039:7042   */\n      0x00\n        /* \"#utility.yul\":7060:7127   */\n      tag_187\n        /* \"#utility.yul\":7124:7126   */\n      0x20\n        /* \"#utility.yul\":7119:7122   */\n      dup4\n        /* \"#utility.yul\":7060:7127   */\n      tag_104\n      jump\t// in\n    tag_187:\n        /* \"#utility.yul\":7053:7127   */\n      swap2\n      pop\n        /* \"#utility.yul\":7136:7229   */\n      tag_188\n        /* \"#utility.yul\":7225:7228   */\n      dup3\n        /* \"#utility.yul\":7136:7229   */\n      tag_107\n      jump\t// in\n    tag_188:\n        /* \"#utility.yul\":7254:7256   */\n      0x20\n        /* \"#utility.yul\":7249:7252   */\n      dup3\n        /* \"#utility.yul\":7245:7257   */\n      add\n        /* \"#utility.yul\":7238:7257   */\n      swap1\n      pop\n        /* \"#utility.yul\":6897:7263   */\n      swap2\n      swap1\n      pop\n      jump\t// out\n        /* \"#utility.yul\":7269:7688   */\n    tag_76:\n        /* \"#utility.yul\":7435:7439   */\n      0x00\n        /* \"#utility.yul\":7473:7475   */\n      0x20\n        /* \"#utility.yul\":7462:7471   */\n      dup3\n        /* \"#utility.yul\":7458:7476   */\n      add\n        /* \"#utility.yul\":7450:7476   */\n      swap1\n      pop\n        /* \"#utility.yul\":7522:7531   */\n      dup2\n        /* \"#utility.yul\":7516:7520   */\n      dup2\n        /* \"#utility.yul\":7512:7532   */\n      sub\n        /* \"#utility.yul\":7508:7509   */\n      0x00\n        /* \"#utility.yul\":7497:7506   */\n      dup4\n        /* \"#utility.yul\":7493:7510   */\n      add\n        /* \"#utility.yul\":7486:7533   */\n      mstore\n        /* \"#utility.yul\":7550:7681   */\n      tag_190\n        /* \"#utility.yul\":7676:7680   */\n      dup2\n        /* \"#utility.yul\":7550:7681   */\n      tag_108\n      jump\t// in\n    tag_190:\n        /* \"#utility.yul\":7542:7681   */\n      swap1\n      pop\n        /* \"#utility.yul\":7269:7688   */\n      swap2\n      swap1\n      pop\n      jump\t// out\n\n    auxdata: 0xa2646970667358221220103be66b029a92276ea6b965ac6d9663aa1fa0f76c51fa3169aa7b8dc25945c764736f6c63430008150033\n}\n",
				"bytecode": {
					"linkReferences": {},
					"object": "608060405234801561000f575f80fd5b50604051610b45380380610b458339818101604052810190610031919061020d565b61004d6100426100e760201b60201c565b6100ee60201b60201c565b8060025f6101000a81548173ffffffffffffffffffffffffffffffffffffffff021916908373ffffffffffffffffffffffffffffffffffffffff16021790555073694aa1769357215de4fac081bf1f309adc32530660015f6101000a81548173ffffffffffffffffffffffffffffffffffffffff021916908373ffffffffffffffffffffffffffffffffffffffff16021790555050610238565b5f33905090565b5f805f9054906101000a900473ffffffffffffffffffffffffffffffffffffffff169050815f806101000a81548173ffffffffffffffffffffffffffffffffffffffff021916908373ffffffffffffffffffffffffffffffffffffffff1602179055508173ffffffffffffffffffffffffffffffffffffffff168173ffffffffffffffffffffffffffffffffffffffff167f8be0079c531659141344cd1fd0a4f28419497f9722a3daafe3b4186f6b6457e060405160405180910390a35050565b5f80fd5b5f73ffffffffffffffffffffffffffffffffffffffff82169050919050565b5f6101dc826101b3565b9050919050565b6101ec816101d2565b81146101f6575f80fd5b50565b5f81519050610207816101e3565b92915050565b5f60208284031215610222576102216101af565b5b5f61022f848285016101f9565b91505092915050565b610900806102455f395ff3fe608060405234801561000f575f80fd5b5060043610610091575f3560e01c80637c8d9cfc116100645780637c8d9cfc146100f95780638da5cb5b146101035780639a149dbe14610121578063f076e0f11461013f578063f2fde38b1461015d57610091565b806325be124e146100955780636543c744146100b3578063715018a6146100d1578063741bef1a146100db575b5f80fd5b61009d610179565b6040516100aa919061059c565b60405180910390f35b6100bb61019e565b6040516100c891906105cd565b60405180910390f35b6100d9610240565b005b6100e3610253565b6040516100f09190610606565b60405180910390f35b610101610278565b005b61010b610290565b604051610118919061063f565b60405180910390f35b6101296102b7565b60405161013691906105cd565b60405180910390f35b610147610354565b60405161015491906105cd565b60405180910390f35b61017760048036038101906101729190610686565b61035a565b005b60025f9054906101000a900473ffffffffffffffffffffffffffffffffffffffff1681565b5f8060015f9054906101000a900473ffffffffffffffffffffffffffffffffffffffff1673ffffffffffffffffffffffffffffffffffffffff1663feaf968c6040518163ffffffff1660e01b815260040160a060405180830381865afa15801561020a573d5f803e3d5ffd5b505050506040513d601f19601f8201168201806040525081019061022e919061074d565b5050509150505f819050809250505090565b6102486103dc565b6102515f61045a565b565b60015f9054906101000a900473ffffffffffffffffffffffffffffffffffffffff1681565b6102806103dc565b61028861019e565b600381905550565b5f805f9054906101000a900473ffffffffffffffffffffffffffffffffffffffff16905090565b5f8060015f9054906101000a900473ffffffffffffffffffffffffffffffffffffffff1673ffffffffffffffffffffffffffffffffffffffff1663feaf968c6040518163ffffffff1660e01b815260040160a060405180830381865afa158015610323573d5f803e3d5ffd5b505050506040513d601f19601f82011682018060405250810190610347919061074d565b5050509150508091505090565b60035481565b6103626103dc565b5f73ffffffffffffffffffffffffffffffffffffffff168173ffffffffffffffffffffffffffffffffffffffff16036103d0576040517f08c379a00000000000000000000000000000000000000000000000000000000081526004016103c790610844565b60405180910390fd5b6103d98161045a565b50565b6103e461051b565b73ffffffffffffffffffffffffffffffffffffffff16610402610290565b73ffffffffffffffffffffffffffffffffffffffff1614610458576040517f08c379a000000000000000000000000000000000000000000000000000000000815260040161044f906108ac565b60405180910390fd5b565b5f805f9054906101000a900473ffffffffffffffffffffffffffffffffffffffff169050815f806101000a81548173ffffffffffffffffffffffffffffffffffffffff021916908373ffffffffffffffffffffffffffffffffffffffff1602179055508173ffffffffffffffffffffffffffffffffffffffff168173ffffffffffffffffffffffffffffffffffffffff167f8be0079c531659141344cd1fd0a4f28419497f9722a3daafe3b4186f6b6457e060405160405180910390a35050565b5f33905090565b5f73ffffffffffffffffffffffffffffffffffffffff82169050919050565b5f819050919050565b5f61056461055f61055a84610522565b610541565b610522565b9050919050565b5f6105758261054a565b9050919050565b5f6105868261056b565b9050919050565b6105968161057c565b82525050565b5f6020820190506105af5f83018461058d565b92915050565b5f819050919050565b6105c7816105b5565b82525050565b5f6020820190506105e05f8301846105be565b92915050565b5f6105f08261056b565b9050919050565b610600816105e6565b82525050565b5f6020820190506106195f8301846105f7565b92915050565b5f61062982610522565b9050919050565b6106398161061f565b82525050565b5f6020820190506106525f830184610630565b92915050565b5f80fd5b6106658161061f565b811461066f575f80fd5b50565b5f813590506106808161065c565b92915050565b5f6020828403121561069b5761069a610658565b5b5f6106a884828501610672565b91505092915050565b5f69ffffffffffffffffffff82169050919050565b6106cf816106b1565b81146106d9575f80fd5b50565b5f815190506106ea816106c6565b92915050565b5f819050919050565b610702816106f0565b811461070c575f80fd5b50565b5f8151905061071d816106f9565b92915050565b61072c816105b5565b8114610736575f80fd5b50565b5f8151905061074781610723565b92915050565b5f805f805f60a0868803121561076657610765610658565b5b5f610773888289016106dc565b95505060206107848882890161070f565b945050604061079588828901610739565b93505060606107a688828901610739565b92505060806107b7888289016106dc565b9150509295509295909350565b5f82825260208201905092915050565b7f4f776e61626c653a206e6577206f776e657220697320746865207a65726f20615f8201527f6464726573730000000000000000000000000000000000000000000000000000602082015250565b5f61082e6026836107c4565b9150610839826107d4565b604082019050919050565b5f6020820190508181035f83015261085b81610822565b9050919050565b7f4f776e61626c653a2063616c6c6572206973206e6f7420746865206f776e65725f82015250565b5f6108966020836107c4565b91506108a182610862565b602082019050919050565b5f6020820190508181035f8301526108c38161088a565b905091905056fea2646970667358221220103be66b029a92276ea6b965ac6d9663aa1fa0f76c51fa3169aa7b8dc25945c764736f6c63430008150033",
					"opcodes": "PUSH1 0x80 PUSH1 0x40 MSTORE CALLVALUE DUP1 ISZERO PUSH2 0xF JUMPI PUSH0 DUP1 REVERT JUMPDEST POP PUSH1 0x40 MLOAD PUSH2 0xB45 CODESIZE SUB DUP1 PUSH2 0xB45 DUP4 CODECOPY DUP2 DUP2 ADD PUSH1 0x40 MSTORE DUP2 ADD SWAP1 PUSH2 0x31 SWAP2 SWAP1 PUSH2 0x20D JUMP JUMPDEST PUSH2 0x4D PUSH2 0x42 PUSH2 0xE7 PUSH1 0x20 SHL PUSH1 0x20 SHR JUMP JUMPDEST PUSH2 0xEE PUSH1 0x20 SHL PUSH1 0x20 SHR JUMP JUMPDEST DUP1 PUSH1 0x2 PUSH0 PUSH2 0x100 EXP DUP2 SLOAD DUP2 PUSH20 0xFFFFFFFFFFFFFFFFFFFFFFFFFFFFFFFFFFFFFFFF MUL NOT AND SWAP1 DUP4 PUSH20 0xFFFFFFFFFFFFFFFFFFFFFFFFFFFFFFFFFFFFFFFF AND MUL OR SWAP1 SSTORE POP PUSH20 0x694AA1769357215DE4FAC081BF1F309ADC325306 PUSH1 0x1 PUSH0 PUSH2 0x100 EXP DUP2 SLOAD DUP2 PUSH20 0xFFFFFFFFFFFFFFFFFFFFFFFFFFFFFFFFFFFFFFFF MUL NOT AND SWAP1 DUP4 PUSH20 0xFFFFFFFFFFFFFFFFFFFFFFFFFFFFFFFFFFFFFFFF AND MUL OR SWAP1 SSTORE POP POP PUSH2 0x238 JUMP JUMPDEST PUSH0 CALLER SWAP1 POP SWAP1 JUMP JUMPDEST PUSH0 DUP1 PUSH0 SWAP1 SLOAD SWAP1 PUSH2 0x100 EXP SWAP1 DIV PUSH20 0xFFFFFFFFFFFFFFFFFFFFFFFFFFFFFFFFFFFFFFFF AND SWAP1 POP DUP2 PUSH0 DUP1 PUSH2 0x100 EXP DUP2 SLOAD DUP2 PUSH20 0xFFFFFFFFFFFFFFFFFFFFFFFFFFFFFFFFFFFFFFFF MUL NOT AND SWAP1 DUP4 PUSH20 0xFFFFFFFFFFFFFFFFFFFFFFFFFFFFFFFFFFFFFFFF AND MUL OR SWAP1 SSTORE POP DUP2 PUSH20 0xFFFFFFFFFFFFFFFFFFFFFFFFFFFFFFFFFFFFFFFF AND DUP2 PUSH20 0xFFFFFFFFFFFFFFFFFFFFFFFFFFFFFFFFFFFFFFFF AND PUSH32 0x8BE0079C531659141344CD1FD0A4F28419497F9722A3DAAFE3B4186F6B6457E0 PUSH1 0x40 MLOAD PUSH1 0x40 MLOAD DUP1 SWAP2 SUB SWAP1 LOG3 POP POP JUMP JUMPDEST PUSH0 DUP1 REVERT JUMPDEST PUSH0 PUSH20 0xFFFFFFFFFFFFFFFFFFFFFFFFFFFFFFFFFFFFFFFF DUP3 AND SWAP1 POP SWAP2 SWAP1 POP JUMP JUMPDEST PUSH0 PUSH2 0x1DC DUP3 PUSH2 0x1B3 JUMP JUMPDEST SWAP1 POP SWAP2 SWAP1 POP JUMP JUMPDEST PUSH2 0x1EC DUP2 PUSH2 0x1D2 JUMP JUMPDEST DUP2 EQ PUSH2 0x1F6 JUMPI PUSH0 DUP1 REVERT JUMPDEST POP JUMP JUMPDEST PUSH0 DUP2 MLOAD SWAP1 POP PUSH2 0x207 DUP2 PUSH2 0x1E3 JUMP JUMPDEST SWAP3 SWAP2 POP POP JUMP JUMPDEST PUSH0 PUSH1 0x20 DUP3 DUP5 SUB SLT ISZERO PUSH2 0x222 JUMPI PUSH2 0x221 PUSH2 0x1AF JUMP JUMPDEST JUMPDEST PUSH0 PUSH2 0x22F DUP5 DUP3 DUP6 ADD PUSH2 0x1F9 JUMP JUMPDEST SWAP2 POP POP SWAP3 SWAP2 POP POP JUMP JUMPDEST PUSH2 0x900 DUP1 PUSH2 0x245 PUSH0 CODECOPY PUSH0 RETURN INVALID PUSH1 0x80 PUSH1 0x40 MSTORE CALLVALUE DUP1 ISZERO PUSH2 0xF JUMPI PUSH0 DUP1 REVERT JUMPDEST POP PUSH1 0x4 CALLDATASIZE LT PUSH2 0x91 JUMPI PUSH0 CALLDATALOAD PUSH1 0xE0 SHR DUP1 PUSH4 0x7C8D9CFC GT PUSH2 0x64 JUMPI DUP1 PUSH4 0x7C8D9CFC EQ PUSH2 0xF9 JUMPI DUP1 PUSH4 0x8DA5CB5B EQ PUSH2 0x103 JUMPI DUP1 PUSH4 0x9A149DBE EQ PUSH2 0x121 JUMPI DUP1 PUSH4 0xF076E0F1 EQ PUSH2 0x13F JUMPI DUP1 PUSH4 0xF2FDE38B EQ PUSH2 0x15D JUMPI PUSH2 0x91 JUMP JUMPDEST DUP1 PUSH4 0x25BE124E EQ PUSH2 0x95 JUMPI DUP1 PUSH4 0x6543C744 EQ PUSH2 0xB3 JUMPI DUP1 PUSH4 0x715018A6 EQ PUSH2 0xD1 JUMPI DUP1 PUSH4 0x741BEF1A EQ PUSH2 0xDB JUMPI JUMPDEST PUSH0 DUP1 REVERT JUMPDEST PUSH2 0x9D PUSH2 0x179 JUMP JUMPDEST PUSH1 0x40 MLOAD PUSH2 0xAA SWAP2 SWAP1 PUSH2 0x59C JUMP JUMPDEST PUSH1 0x40 MLOAD DUP1 SWAP2 SUB SWAP1 RETURN JUMPDEST PUSH2 0xBB PUSH2 0x19E JUMP JUMPDEST PUSH1 0x40 MLOAD PUSH2 0xC8 SWAP2 SWAP1 PUSH2 0x5CD JUMP JUMPDEST PUSH1 0x40 MLOAD DUP1 SWAP2 SUB SWAP1 RETURN JUMPDEST PUSH2 0xD9 PUSH2 0x240 JUMP JUMPDEST STOP JUMPDEST PUSH2 0xE3 PUSH2 0x253 JUMP JUMPDEST PUSH1 0x40 MLOAD PUSH2 0xF0 SWAP2 SWAP1 PUSH2 0x606 JUMP JUMPDEST PUSH1 0x40 MLOAD DUP1 SWAP2 SUB SWAP1 RETURN JUMPDEST PUSH2 0x101 PUSH2 0x278 JUMP JUMPDEST STOP JUMPDEST PUSH2 0x10B PUSH2 0x290 JUMP JUMPDEST PUSH1 0x40 MLOAD PUSH2 0x118 SWAP2 SWAP1 PUSH2 0x63F JUMP JUMPDEST PUSH1 0x40 MLOAD DUP1 SWAP2 SUB SWAP1 RETURN JUMPDEST PUSH2 0x129 PUSH2 0x2B7 JUMP JUMPDEST PUSH1 0x40 MLOAD PUSH2 0x136 SWAP2 SWAP1 PUSH2 0x5CD JUMP JUMPDEST PUSH1 0x40 MLOAD DUP1 SWAP2 SUB SWAP1 RETURN JUMPDEST PUSH2 0x147 PUSH2 0x354 JUMP JUMPDEST PUSH1 0x40 MLOAD PUSH2 0x154 SWAP2 SWAP1 PUSH2 0x5CD JUMP JUMPDEST PUSH1 0x40 MLOAD DUP1 SWAP2 SUB SWAP1 RETURN JUMPDEST PUSH2 0x177 PUSH1 0x4 DUP1 CALLDATASIZE SUB DUP2 ADD SWAP1 PUSH2 0x172 SWAP2 SWAP1 PUSH2 0x686 JUMP JUMPDEST PUSH2 0x35A JUMP JUMPDEST STOP JUMPDEST PUSH1 0x2 PUSH0 SWAP1 SLOAD SWAP1 PUSH2 0x100 EXP SWAP1 DIV PUSH20 0xFFFFFFFFFFFFFFFFFFFFFFFFFFFFFFFFFFFFFFFF AND DUP2 JUMP JUMPDEST PUSH0 DUP1 PUSH1 0x1 PUSH0 SWAP1 SLOAD SWAP1 PUSH2 0x100 EXP SWAP1 DIV PUSH20 0xFFFFFFFFFFFFFFFFFFFFFFFFFFFFFFFFFFFFFFFF AND PUSH20 0xFFFFFFFFFFFFFFFFFFFFFFFFFFFFFFFFFFFFFFFF AND PUSH4 0xFEAF968C PUSH1 0x40 MLOAD DUP2 PUSH4 0xFFFFFFFF AND PUSH1 0xE0 SHL DUP2 MSTORE PUSH1 0x4 ADD PUSH1 0xA0 PUSH1 0x40 MLOAD DUP1 DUP4 SUB DUP2 DUP7 GAS STATICCALL ISZERO DUP1 ISZERO PUSH2 0x20A JUMPI RETURNDATASIZE PUSH0 DUP1 RETURNDATACOPY RETURNDATASIZE PUSH0 REVERT JUMPDEST POP POP POP POP PUSH1 0x40 MLOAD RETURNDATASIZE PUSH1 0x1F NOT PUSH1 0x1F DUP3 ADD AND DUP3 ADD DUP1 PUSH1 0x40 MSTORE POP DUP2 ADD SWAP1 PUSH2 0x22E SWAP2 SWAP1 PUSH2 0x74D JUMP JUMPDEST POP POP POP SWAP2 POP POP PUSH0 DUP2 SWAP1 POP DUP1 SWAP3 POP POP POP SWAP1 JUMP JUMPDEST PUSH2 0x248 PUSH2 0x3DC JUMP JUMPDEST PUSH2 0x251 PUSH0 PUSH2 0x45A JUMP JUMPDEST JUMP JUMPDEST PUSH1 0x1 PUSH0 SWAP1 SLOAD SWAP1 PUSH2 0x100 EXP SWAP1 DIV PUSH20 0xFFFFFFFFFFFFFFFFFFFFFFFFFFFFFFFFFFFFFFFF AND DUP2 JUMP JUMPDEST PUSH2 0x280 PUSH2 0x3DC JUMP JUMPDEST PUSH2 0x288 PUSH2 0x19E JUMP JUMPDEST PUSH1 0x3 DUP2 SWAP1 SSTORE POP JUMP JUMPDEST PUSH0 DUP1 PUSH0 SWAP1 SLOAD SWAP1 PUSH2 0x100 EXP SWAP1 DIV PUSH20 0xFFFFFFFFFFFFFFFFFFFFFFFFFFFFFFFFFFFFFFFF AND SWAP1 POP SWAP1 JUMP JUMPDEST PUSH0 DUP1 PUSH1 0x1 PUSH0 SWAP1 SLOAD SWAP1 PUSH2 0x100 EXP SWAP1 DIV PUSH20 0xFFFFFFFFFFFFFFFFFFFFFFFFFFFFFFFFFFFFFFFF AND PUSH20 0xFFFFFFFFFFFFFFFFFFFFFFFFFFFFFFFFFFFFFFFF AND PUSH4 0xFEAF968C PUSH1 0x40 MLOAD DUP2 PUSH4 0xFFFFFFFF AND PUSH1 0xE0 SHL DUP2 MSTORE PUSH1 0x4 ADD PUSH1 0xA0 PUSH1 0x40 MLOAD DUP1 DUP4 SUB DUP2 DUP7 GAS STATICCALL ISZERO DUP1 ISZERO PUSH2 0x323 JUMPI RETURNDATASIZE PUSH0 DUP1 RETURNDATACOPY RETURNDATASIZE PUSH0 REVERT JUMPDEST POP POP POP POP PUSH1 0x40 MLOAD RETURNDATASIZE PUSH1 0x1F NOT PUSH1 0x1F DUP3 ADD AND DUP3 ADD DUP1 PUSH1 0x40 MSTORE POP DUP2 ADD SWAP1 PUSH2 0x347 SWAP2 SWAP1 PUSH2 0x74D JUMP JUMPDEST POP POP POP SWAP2 POP POP DUP1 SWAP2 POP POP SWAP1 JUMP JUMPDEST PUSH1 0x3 SLOAD DUP2 JUMP JUMPDEST PUSH2 0x362 PUSH2 0x3DC JUMP JUMPDEST PUSH0 PUSH20 0xFFFFFFFFFFFFFFFFFFFFFFFFFFFFFFFFFFFFFFFF AND DUP2 PUSH20 0xFFFFFFFFFFFFFFFFFFFFFFFFFFFFFFFFFFFFFFFF AND SUB PUSH2 0x3D0 JUMPI PUSH1 0x40 MLOAD PUSH32 0x8C379A000000000000000000000000000000000000000000000000000000000 DUP2 MSTORE PUSH1 0x4 ADD PUSH2 0x3C7 SWAP1 PUSH2 0x844 JUMP JUMPDEST PUSH1 0x40 MLOAD DUP1 SWAP2 SUB SWAP1 REVERT JUMPDEST PUSH2 0x3D9 DUP2 PUSH2 0x45A JUMP JUMPDEST POP JUMP JUMPDEST PUSH2 0x3E4 PUSH2 0x51B JUMP JUMPDEST PUSH20 0xFFFFFFFFFFFFFFFFFFFFFFFFFFFFFFFFFFFFFFFF AND PUSH2 0x402 PUSH2 0x290 JUMP JUMPDEST PUSH20 0xFFFFFFFFFFFFFFFFFFFFFFFFFFFFFFFFFFFFFFFF AND EQ PUSH2 0x458 JUMPI PUSH1 0x40 MLOAD PUSH32 0x8C379A000000000000000000000000000000000000000000000000000000000 DUP2 MSTORE PUSH1 0x4 ADD PUSH2 0x44F SWAP1 PUSH2 0x8AC JUMP JUMPDEST PUSH1 0x40 MLOAD DUP1 SWAP2 SUB SWAP1 REVERT JUMPDEST JUMP JUMPDEST PUSH0 DUP1 PUSH0 SWAP1 SLOAD SWAP1 PUSH2 0x100 EXP SWAP1 DIV PUSH20 0xFFFFFFFFFFFFFFFFFFFFFFFFFFFFFFFFFFFFFFFF AND SWAP1 POP DUP2 PUSH0 DUP1 PUSH2 0x100 EXP DUP2 SLOAD DUP2 PUSH20 0xFFFFFFFFFFFFFFFFFFFFFFFFFFFFFFFFFFFFFFFF MUL NOT AND SWAP1 DUP4 PUSH20 0xFFFFFFFFFFFFFFFFFFFFFFFFFFFFFFFFFFFFFFFF AND MUL OR SWAP1 SSTORE POP DUP2 PUSH20 0xFFFFFFFFFFFFFFFFFFFFFFFFFFFFFFFFFFFFFFFF AND DUP2 PUSH20 0xFFFFFFFFFFFFFFFFFFFFFFFFFFFFFFFFFFFFFFFF AND PUSH32 0x8BE0079C531659141344CD1FD0A4F28419497F9722A3DAAFE3B4186F6B6457E0 PUSH1 0x40 MLOAD PUSH1 0x40 MLOAD DUP1 SWAP2 SUB SWAP1 LOG3 POP POP JUMP JUMPDEST PUSH0 CALLER SWAP1 POP SWAP1 JUMP JUMPDEST PUSH0 PUSH20 0xFFFFFFFFFFFFFFFFFFFFFFFFFFFFFFFFFFFFFFFF DUP3 AND SWAP1 POP SWAP2 SWAP1 POP JUMP JUMPDEST PUSH0 DUP2 SWAP1 POP SWAP2 SWAP1 POP JUMP JUMPDEST PUSH0 PUSH2 0x564 PUSH2 0x55F PUSH2 0x55A DUP5 PUSH2 0x522 JUMP JUMPDEST PUSH2 0x541 JUMP JUMPDEST PUSH2 0x522 JUMP JUMPDEST SWAP1 POP SWAP2 SWAP1 POP JUMP JUMPDEST PUSH0 PUSH2 0x575 DUP3 PUSH2 0x54A JUMP JUMPDEST SWAP1 POP SWAP2 SWAP1 POP JUMP JUMPDEST PUSH0 PUSH2 0x586 DUP3 PUSH2 0x56B JUMP JUMPDEST SWAP1 POP SWAP2 SWAP1 POP JUMP JUMPDEST PUSH2 0x596 DUP2 PUSH2 0x57C JUMP JUMPDEST DUP3 MSTORE POP POP JUMP JUMPDEST PUSH0 PUSH1 0x20 DUP3 ADD SWAP1 POP PUSH2 0x5AF PUSH0 DUP4 ADD DUP5 PUSH2 0x58D JUMP JUMPDEST SWAP3 SWAP2 POP POP JUMP JUMPDEST PUSH0 DUP2 SWAP1 POP SWAP2 SWAP1 POP JUMP JUMPDEST PUSH2 0x5C7 DUP2 PUSH2 0x5B5 JUMP JUMPDEST DUP3 MSTORE POP POP JUMP JUMPDEST PUSH0 PUSH1 0x20 DUP3 ADD SWAP1 POP PUSH2 0x5E0 PUSH0 DUP4 ADD DUP5 PUSH2 0x5BE JUMP JUMPDEST SWAP3 SWAP2 POP POP JUMP JUMPDEST PUSH0 PUSH2 0x5F0 DUP3 PUSH2 0x56B JUMP JUMPDEST SWAP1 POP SWAP2 SWAP1 POP JUMP JUMPDEST PUSH2 0x600 DUP2 PUSH2 0x5E6 JUMP JUMPDEST DUP3 MSTORE POP POP JUMP JUMPDEST PUSH0 PUSH1 0x20 DUP3 ADD SWAP1 POP PUSH2 0x619 PUSH0 DUP4 ADD DUP5 PUSH2 0x5F7 JUMP JUMPDEST SWAP3 SWAP2 POP POP JUMP JUMPDEST PUSH0 PUSH2 0x629 DUP3 PUSH2 0x522 JUMP JUMPDEST SWAP1 POP SWAP2 SWAP1 POP JUMP JUMPDEST PUSH2 0x639 DUP2 PUSH2 0x61F JUMP JUMPDEST DUP3 MSTORE POP POP JUMP JUMPDEST PUSH0 PUSH1 0x20 DUP3 ADD SWAP1 POP PUSH2 0x652 PUSH0 DUP4 ADD DUP5 PUSH2 0x630 JUMP JUMPDEST SWAP3 SWAP2 POP POP JUMP JUMPDEST PUSH0 DUP1 REVERT JUMPDEST PUSH2 0x665 DUP2 PUSH2 0x61F JUMP JUMPDEST DUP2 EQ PUSH2 0x66F JUMPI PUSH0 DUP1 REVERT JUMPDEST POP JUMP JUMPDEST PUSH0 DUP2 CALLDATALOAD SWAP1 POP PUSH2 0x680 DUP2 PUSH2 0x65C JUMP JUMPDEST SWAP3 SWAP2 POP POP JUMP JUMPDEST PUSH0 PUSH1 0x20 DUP3 DUP5 SUB SLT ISZERO PUSH2 0x69B JUMPI PUSH2 0x69A PUSH2 0x658 JUMP JUMPDEST JUMPDEST PUSH0 PUSH2 0x6A8 DUP5 DUP3 DUP6 ADD PUSH2 0x672 JUMP JUMPDEST SWAP2 POP POP SWAP3 SWAP2 POP POP JUMP JUMPDEST PUSH0 PUSH10 0xFFFFFFFFFFFFFFFFFFFF DUP3 AND SWAP1 POP SWAP2 SWAP1 POP JUMP JUMPDEST PUSH2 0x6CF DUP2 PUSH2 0x6B1 JUMP JUMPDEST DUP2 EQ PUSH2 0x6D9 JUMPI PUSH0 DUP1 REVERT JUMPDEST POP JUMP JUMPDEST PUSH0 DUP2 MLOAD SWAP1 POP PUSH2 0x6EA DUP2 PUSH2 0x6C6 JUMP JUMPDEST SWAP3 SWAP2 POP POP JUMP JUMPDEST PUSH0 DUP2 SWAP1 POP SWAP2 SWAP1 POP JUMP JUMPDEST PUSH2 0x702 DUP2 PUSH2 0x6F0 JUMP JUMPDEST DUP2 EQ PUSH2 0x70C JUMPI PUSH0 DUP1 REVERT JUMPDEST POP JUMP JUMPDEST PUSH0 DUP2 MLOAD SWAP1 POP PUSH2 0x71D DUP2 PUSH2 0x6F9 JUMP JUMPDEST SWAP3 SWAP2 POP POP JUMP JUMPDEST PUSH2 0x72C DUP2 PUSH2 0x5B5 JUMP JUMPDEST DUP2 EQ PUSH2 0x736 JUMPI PUSH0 DUP1 REVERT JUMPDEST POP JUMP JUMPDEST PUSH0 DUP2 MLOAD SWAP1 POP PUSH2 0x747 DUP2 PUSH2 0x723 JUMP JUMPDEST SWAP3 SWAP2 POP POP JUMP JUMPDEST PUSH0 DUP1 PUSH0 DUP1 PUSH0 PUSH1 0xA0 DUP7 DUP9 SUB SLT ISZERO PUSH2 0x766 JUMPI PUSH2 0x765 PUSH2 0x658 JUMP JUMPDEST JUMPDEST PUSH0 PUSH2 0x773 DUP9 DUP3 DUP10 ADD PUSH2 0x6DC JUMP JUMPDEST SWAP6 POP POP PUSH1 0x20 PUSH2 0x784 DUP9 DUP3 DUP10 ADD PUSH2 0x70F JUMP JUMPDEST SWAP5 POP POP PUSH1 0x40 PUSH2 0x795 DUP9 DUP3 DUP10 ADD PUSH2 0x739 JUMP JUMPDEST SWAP4 POP POP PUSH1 0x60 PUSH2 0x7A6 DUP9 DUP3 DUP10 ADD PUSH2 0x739 JUMP JUMPDEST SWAP3 POP POP PUSH1 0x80 PUSH2 0x7B7 DUP9 DUP3 DUP10 ADD PUSH2 0x6DC JUMP JUMPDEST SWAP2 POP POP SWAP3 SWAP6 POP SWAP3 SWAP6 SWAP1 SWAP4 POP JUMP JUMPDEST PUSH0 DUP3 DUP3 MSTORE PUSH1 0x20 DUP3 ADD SWAP1 POP SWAP3 SWAP2 POP POP JUMP JUMPDEST PUSH32 0x4F776E61626C653A206E6577206F776E657220697320746865207A65726F2061 PUSH0 DUP3 ADD MSTORE PUSH32 0x6464726573730000000000000000000000000000000000000000000000000000 PUSH1 0x20 DUP3 ADD MSTORE POP JUMP JUMPDEST PUSH0 PUSH2 0x82E PUSH1 0x26 DUP4 PUSH2 0x7C4 JUMP JUMPDEST SWAP2 POP PUSH2 0x839 DUP3 PUSH2 0x7D4 JUMP JUMPDEST PUSH1 0x40 DUP3 ADD SWAP1 POP SWAP2 SWAP1 POP JUMP JUMPDEST PUSH0 PUSH1 0x20 DUP3 ADD SWAP1 POP DUP2 DUP2 SUB PUSH0 DUP4 ADD MSTORE PUSH2 0x85B DUP2 PUSH2 0x822 JUMP JUMPDEST SWAP1 POP SWAP2 SWAP1 POP JUMP JUMPDEST PUSH32 0x4F776E61626C653A2063616C6C6572206973206E6F7420746865206F776E6572 PUSH0 DUP3 ADD MSTORE POP JUMP JUMPDEST PUSH0 PUSH2 0x896 PUSH1 0x20 DUP4 PUSH2 0x7C4 JUMP JUMPDEST SWAP2 POP PUSH2 0x8A1 DUP3 PUSH2 0x862 JUMP JUMPDEST PUSH1 0x20 DUP3 ADD SWAP1 POP SWAP2 SWAP1 POP JUMP JUMPDEST PUSH0 PUSH1 0x20 DUP3 ADD SWAP1 POP DUP2 DUP2 SUB PUSH0 DUP4 ADD MSTORE PUSH2 0x8C3 DUP2 PUSH2 0x88A JUMP JUMPDEST SWAP1 POP SWAP2 SWAP1 POP JUMP INVALID LOG2 PUSH5 0x6970667358 0x22 SLT KECCAK256 LT EXTCODESIZE 0xE6 PUSH12 0x29A92276EA6B965AC6D9663 0xAA 0x1F LOG0 0xF7 PUSH13 0x51FA3169AA7B8DC25945C76473 PUSH16 0x6C634300081500330000000000000000 "
				},
				"gasEstimates": {
					"creation": {
						"codeDepositCost": "460800",
						"executionCost": "infinite",
						"totalCost": "infinite"
					},
					"external": {
						"getCurrentUSDPrice()": "infinite",
						"getEtherPriceInUSD()": "infinite",
						"owner()": "2537",
						"priceFeed()": "infinite",
						"renounceOwnership()": "30435",
						"setTokenPriceFromChainlink()": "infinite",
						"token2()": "infinite",
						"tokenPriceInUSD()": "2491",
						"transferOwnership(address)": "30819"
					}
				},
				"methodIdentifiers": {
					"getCurrentUSDPrice()": "9a149dbe",
					"getEtherPriceInUSD()": "6543c744",
					"owner()": "8da5cb5b",
					"priceFeed()": "741bef1a",
					"renounceOwnership()": "715018a6",
					"setTokenPriceFromChainlink()": "7c8d9cfc",
					"token2()": "25be124e",
					"tokenPriceInUSD()": "f076e0f1",
					"transferOwnership(address)": "f2fde38b"
				}
			},
			"storageLayout": {
				"storage": [
					{
						"astId": 104,
						"contract": "contracts/vineet/token2_flattened.sol:TokenMarketplace",
						"label": "_owner",
						"offset": 0,
						"slot": "0",
						"type": "t_address"
					},
					{
						"astId": 260,
						"contract": "contracts/vineet/token2_flattened.sol:TokenMarketplace",
						"label": "priceFeed",
						"offset": 0,
						"slot": "1",
						"type": "t_contract(AggregatorV3Interface)254"
					},
					{
						"astId": 263,
						"contract": "contracts/vineet/token2_flattened.sol:TokenMarketplace",
						"label": "token2",
						"offset": 0,
						"slot": "2",
						"type": "t_contract(IERC20)77"
					},
					{
						"astId": 265,
						"contract": "contracts/vineet/token2_flattened.sol:TokenMarketplace",
						"label": "tokenPriceInUSD",
						"offset": 0,
						"slot": "3",
						"type": "t_uint256"
					}
				],
				"types": {
					"t_address": {
						"encoding": "inplace",
						"label": "address",
						"numberOfBytes": "20"
					},
					"t_contract(AggregatorV3Interface)254": {
						"encoding": "inplace",
						"label": "contract AggregatorV3Interface",
						"numberOfBytes": "20"
					},
					"t_contract(IERC20)77": {
						"encoding": "inplace",
						"label": "contract IERC20",
						"numberOfBytes": "20"
					},
					"t_uint256": {
						"encoding": "inplace",
						"label": "uint256",
						"numberOfBytes": "32"
					}
				}
			},
			"userdoc": {
				"kind": "user",
				"methods": {},
				"version": 1
			}
		}
	}
}