{
	"data": {
		"bytecode": {
			"linkReferences": {},
			"object": "6080604052605060015534801562000015575f80fd5b506040516200128a3803806200128a83398181016040528101906200003b919062000263565b6200005b6200004f620000fe60201b60201c565b6200010560201b60201c565b73694aa1769357215de4fac081bf1f309adc32530660025f6101000a81548173ffffffffffffffffffffffffffffffffffffffff021916908373ffffffffffffffffffffffffffffffffffffffff160217905550816003819055508060045f6101000a81548173ffffffffffffffffffffffffffffffffffffffff021916908373ffffffffffffffffffffffffffffffffffffffff1602179055505050620002a8565b5f33905090565b5f805f9054906101000a900473ffffffffffffffffffffffffffffffffffffffff169050815f806101000a81548173ffffffffffffffffffffffffffffffffffffffff021916908373ffffffffffffffffffffffffffffffffffffffff1602179055508173ffffffffffffffffffffffffffffffffffffffff168173ffffffffffffffffffffffffffffffffffffffff167f8be0079c531659141344cd1fd0a4f28419497f9722a3daafe3b4186f6b6457e060405160405180910390a35050565b5f80fd5b5f819050919050565b620001de81620001ca565b8114620001e9575f80fd5b50565b5f81519050620001fc81620001d3565b92915050565b5f73ffffffffffffffffffffffffffffffffffffffff82169050919050565b5f6200022d8262000202565b9050919050565b6200023f8162000221565b81146200024a575f80fd5b50565b5f815190506200025d8162000234565b92915050565b5f80604083850312156200027c576200027b620001c6565b5b5f6200028b85828601620001ec565b92505060206200029e858286016200024d565b9150509250929050565b610fd480620002b65f395ff3fe608060405234801561000f575f80fd5b50600436106100cd575f3560e01c80637cde73ad1161008a578063ab5581a111610064578063ab5581a1146101c5578063da6bae10146101e3578063f212ea7214610201578063f2fde38b1461020b576100cd565b80637cde73ad1461016d5780637ffdf53e146101895780638da5cb5b146101a7576100cd565b80631acf5582146100d15780632601a2c3146100ef5780632d02a5b21461010d5780634450140414610129578063560b8a4d14610147578063715018a614610163575b5f80fd5b6100d9610227565b6040516100e69190610948565b60405180910390f35b6100f7610315565b60405161010491906109db565b60405180910390f35b61012760048036038101906101229190610a22565b61033a565b005b61013161038e565b60405161013e9190610948565b60405180910390f35b610161600480360381019061015c9190610a88565b610394565b005b61016b6104ed565b005b61018760048036038101906101829190610a88565b610500565b005b610191610659565b60405161019e9190610948565b60405180910390f35b6101af61065f565b6040516101bc9190610ad5565b60405180910390f35b6101cd610686565b6040516101da9190610ad5565b60405180910390f35b6101eb6106ab565b6040516101f89190610948565b60405180910390f35b6102096106b4565b005b61022560048036038101906102209190610aee565b610768565b005b5f8060025f9054906101000a900473ffffffffffffffffffffffffffffffffffffffff1673ffffffffffffffffffffffffffffffffffffffff1663feaf968c6040518163ffffffff1660e01b815260040160a060405180830381865afa158015610293573d5f803e3d5ffd5b505050506040513d601f19601f820116820180604052508101906102b79190610b9f565b5050509150505f81136102ff576040517f08c379a00000000000000000000000000000000000000000000000000000000081526004016102f690610c70565b60405180910390fd5b6305f5e1008161030f9190610ce8565b91505090565b60025f9054906101000a900473ffffffffffffffffffffffffffffffffffffffff1681565b6103426107ea565b5f8111610384576040517f08c379a000000000000000000000000000000000000000000000000000000000815260040161037b90610d62565b60405180910390fd5b8060038190555050565b60035481565b8173ffffffffffffffffffffffffffffffffffffffff166323b872dd3330620f4240856103c19190610d80565b6040518463ffffffff1660e01b81526004016103df93929190610dc1565b6020604051808303815f875af11580156103fb573d5f803e3d5ffd5b505050506040513d601f19601f8201168201806040525081019061041f9190610e2b565b505f6064600154836104319190610d80565b61043b9190610ce8565b905060045f9054906101000a900473ffffffffffffffffffffffffffffffffffffffff1673ffffffffffffffffffffffffffffffffffffffff1663a9059cbb33620f42408461048a9190610d80565b6040518363ffffffff1660e01b81526004016104a7929190610e56565b6020604051808303815f875af11580156104c3573d5f803e3d5ffd5b505050506040513d601f19601f820116820180604052508101906104e79190610e2b565b50505050565b6104f56107ea565b6104fe5f610868565b565b60045f9054906101000a900473ffffffffffffffffffffffffffffffffffffffff1673ffffffffffffffffffffffffffffffffffffffff166323b872dd3330620f42408561054e9190610d80565b6040518463ffffffff1660e01b815260040161056c93929190610dc1565b6020604051808303815f875af1158015610588573d5f803e3d5ffd5b505050506040513d601f19601f820116820180604052508101906105ac9190610e2b565b505f6001546064836105be9190610d80565b6105c89190610ce8565b90508273ffffffffffffffffffffffffffffffffffffffff1663a9059cbb33620f4240846105f69190610d80565b6040518363ffffffff1660e01b8152600401610613929190610e56565b6020604051808303815f875af115801561062f573d5f803e3d5ffd5b505050506040513d601f19601f820116820180604052508101906106539190610e2b565b50505050565b60015481565b5f805f9054906101000a900473ffffffffffffffffffffffffffffffffffffffff16905090565b60045f9054906101000a900473ffffffffffffffffffffffffffffffffffffffff1681565b5f600354905090565b5f60045f9054906101000a900473ffffffffffffffffffffffffffffffffffffffff1673ffffffffffffffffffffffffffffffffffffffff1663f076e0f16040518163ffffffff1660e01b8152600401602060405180830381865afa15801561071f573d5f803e3d5ffd5b505050506040513d601f19601f820116820180604052508101906107439190610e7d565b90508060646003546107559190610d80565b61075f9190610ce8565b60018190555050565b6107706107ea565b5f73ffffffffffffffffffffffffffffffffffffffff168173ffffffffffffffffffffffffffffffffffffffff16036107de576040517f08c379a00000000000000000000000000000000000000000000000000000000081526004016107d590610f18565b60405180910390fd5b6107e781610868565b50565b6107f2610929565b73ffffffffffffffffffffffffffffffffffffffff1661081061065f565b73ffffffffffffffffffffffffffffffffffffffff1614610866576040517f08c379a000000000000000000000000000000000000000000000000000000000815260040161085d90610f80565b60405180910390fd5b565b5f805f9054906101000a900473ffffffffffffffffffffffffffffffffffffffff169050815f806101000a81548173ffffffffffffffffffffffffffffffffffffffff021916908373ffffffffffffffffffffffffffffffffffffffff1602179055508173ffffffffffffffffffffffffffffffffffffffff168173ffffffffffffffffffffffffffffffffffffffff167f8be0079c531659141344cd1fd0a4f28419497f9722a3daafe3b4186f6b6457e060405160405180910390a35050565b5f33905090565b5f819050919050565b61094281610930565b82525050565b5f60208201905061095b5f830184610939565b92915050565b5f73ffffffffffffffffffffffffffffffffffffffff82169050919050565b5f819050919050565b5f6109a361099e61099984610961565b610980565b610961565b9050919050565b5f6109b482610989565b9050919050565b5f6109c5826109aa565b9050919050565b6109d5816109bb565b82525050565b5f6020820190506109ee5f8301846109cc565b92915050565b5f80fd5b610a0181610930565b8114610a0b575f80fd5b50565b5f81359050610a1c816109f8565b92915050565b5f60208284031215610a3757610a366109f4565b5b5f610a4484828501610a0e565b91505092915050565b5f610a5782610961565b9050919050565b610a6781610a4d565b8114610a71575f80fd5b50565b5f81359050610a8281610a5e565b92915050565b5f8060408385031215610a9e57610a9d6109f4565b5b5f610aab85828601610a74565b9250506020610abc85828601610a0e565b9150509250929050565b610acf81610a4d565b82525050565b5f602082019050610ae85f830184610ac6565b92915050565b5f60208284031215610b0357610b026109f4565b5b5f610b1084828501610a74565b91505092915050565b5f69ffffffffffffffffffff82169050919050565b610b3781610b19565b8114610b41575f80fd5b50565b5f81519050610b5281610b2e565b92915050565b5f819050919050565b610b6a81610b58565b8114610b74575f80fd5b50565b5f81519050610b8581610b61565b92915050565b5f81519050610b99816109f8565b92915050565b5f805f805f60a08688031215610bb857610bb76109f4565b5b5f610bc588828901610b44565b9550506020610bd688828901610b77565b9450506040610be788828901610b8b565b9350506060610bf888828901610b8b565b9250506080610c0988828901610b44565b9150509295509295909350565b5f82825260208201905092915050565b7f496e76616c6964205553442070726963652066726f6d20436861696e6c696e6b5f82015250565b5f610c5a602083610c16565b9150610c6582610c26565b602082019050919050565b5f6020820190508181035f830152610c8781610c4e565b9050919050565b7f4e487b71000000000000000000000000000000000000000000000000000000005f52601260045260245ffd5b7f4e487b71000000000000000000000000000000000000000000000000000000005f52601160045260245ffd5b5f610cf282610930565b9150610cfd83610930565b925082610d0d57610d0c610c8e565b5b828204905092915050565b7f496e76616c696420676f6c6420707269636500000000000000000000000000005f82015250565b5f610d4c601283610c16565b9150610d5782610d18565b602082019050919050565b5f6020820190508181035f830152610d7981610d40565b9050919050565b5f610d8a82610930565b9150610d9583610930565b9250828202610da381610930565b91508282048414831517610dba57610db9610cbb565b5b5092915050565b5f606082019050610dd45f830186610ac6565b610de16020830185610ac6565b610dee6040830184610939565b949350505050565b5f8115159050919050565b610e0a81610df6565b8114610e14575f80fd5b50565b5f81519050610e2581610e01565b92915050565b5f60208284031215610e4057610e3f6109f4565b5b5f610e4d84828501610e17565b91505092915050565b5f604082019050610e695f830185610ac6565b610e766020830184610939565b9392505050565b5f60208284031215610e9257610e916109f4565b5b5f610e9f84828501610b8b565b91505092915050565b7f4f776e61626c653a206e6577206f776e657220697320746865207a65726f20615f8201527f6464726573730000000000000000000000000000000000000000000000000000602082015250565b5f610f02602683610c16565b9150610f0d82610ea8565b604082019050919050565b5f6020820190508181035f830152610f2f81610ef6565b9050919050565b7f4f776e61626c653a2063616c6c6572206973206e6f7420746865206f776e65725f82015250565b5f610f6a602083610c16565b9150610f7582610f36565b602082019050919050565b5f6020820190508181035f830152610f9781610f5e565b905091905056fea2646970667358221220efac8c4b5aeda7196385d21493c094248ecf808bd0d9a0f29e1802484a96631b64736f6c63430008150033",
			"opcodes": "PUSH1 0x80 PUSH1 0x40 MSTORE PUSH1 0x50 PUSH1 0x1 SSTORE CALLVALUE DUP1 ISZERO PUSH3 0x15 JUMPI PUSH0 DUP1 REVERT JUMPDEST POP PUSH1 0x40 MLOAD PUSH3 0x128A CODESIZE SUB DUP1 PUSH3 0x128A DUP4 CODECOPY DUP2 DUP2 ADD PUSH1 0x40 MSTORE DUP2 ADD SWAP1 PUSH3 0x3B SWAP2 SWAP1 PUSH3 0x263 JUMP JUMPDEST PUSH3 0x5B PUSH3 0x4F PUSH3 0xFE PUSH1 0x20 SHL PUSH1 0x20 SHR JUMP JUMPDEST PUSH3 0x105 PUSH1 0x20 SHL PUSH1 0x20 SHR JUMP JUMPDEST PUSH20 0x694AA1769357215DE4FAC081BF1F309ADC325306 PUSH1 0x2 PUSH0 PUSH2 0x100 EXP DUP2 SLOAD DUP2 PUSH20 0xFFFFFFFFFFFFFFFFFFFFFFFFFFFFFFFFFFFFFFFF MUL NOT AND SWAP1 DUP4 PUSH20 0xFFFFFFFFFFFFFFFFFFFFFFFFFFFFFFFFFFFFFFFF AND MUL OR SWAP1 SSTORE POP DUP2 PUSH1 0x3 DUP2 SWAP1 SSTORE POP DUP1 PUSH1 0x4 PUSH0 PUSH2 0x100 EXP DUP2 SLOAD DUP2 PUSH20 0xFFFFFFFFFFFFFFFFFFFFFFFFFFFFFFFFFFFFFFFF MUL NOT AND SWAP1 DUP4 PUSH20 0xFFFFFFFFFFFFFFFFFFFFFFFFFFFFFFFFFFFFFFFF AND MUL OR SWAP1 SSTORE POP POP POP PUSH3 0x2A8 JUMP JUMPDEST PUSH0 CALLER SWAP1 POP SWAP1 JUMP JUMPDEST PUSH0 DUP1 PUSH0 SWAP1 SLOAD SWAP1 PUSH2 0x100 EXP SWAP1 DIV PUSH20 0xFFFFFFFFFFFFFFFFFFFFFFFFFFFFFFFFFFFFFFFF AND SWAP1 POP DUP2 PUSH0 DUP1 PUSH2 0x100 EXP DUP2 SLOAD DUP2 PUSH20 0xFFFFFFFFFFFFFFFFFFFFFFFFFFFFFFFFFFFFFFFF MUL NOT AND SWAP1 DUP4 PUSH20 0xFFFFFFFFFFFFFFFFFFFFFFFFFFFFFFFFFFFFFFFF AND MUL OR SWAP1 SSTORE POP DUP2 PUSH20 0xFFFFFFFFFFFFFFFFFFFFFFFFFFFFFFFFFFFFFFFF AND DUP2 PUSH20 0xFFFFFFFFFFFFFFFFFFFFFFFFFFFFFFFFFFFFFFFF AND PUSH32 0x8BE0079C531659141344CD1FD0A4F28419497F9722A3DAAFE3B4186F6B6457E0 PUSH1 0x40 MLOAD PUSH1 0x40 MLOAD DUP1 SWAP2 SUB SWAP1 LOG3 POP POP JUMP JUMPDEST PUSH0 DUP1 REVERT JUMPDEST PUSH0 DUP2 SWAP1 POP SWAP2 SWAP1 POP JUMP JUMPDEST PUSH3 0x1DE DUP2 PUSH3 0x1CA JUMP JUMPDEST DUP2 EQ PUSH3 0x1E9 JUMPI PUSH0 DUP1 REVERT JUMPDEST POP JUMP JUMPDEST PUSH0 DUP2 MLOAD SWAP1 POP PUSH3 0x1FC DUP2 PUSH3 0x1D3 JUMP JUMPDEST SWAP3 SWAP2 POP POP JUMP JUMPDEST PUSH0 PUSH20 0xFFFFFFFFFFFFFFFFFFFFFFFFFFFFFFFFFFFFFFFF DUP3 AND SWAP1 POP SWAP2 SWAP1 POP JUMP JUMPDEST PUSH0 PUSH3 0x22D DUP3 PUSH3 0x202 JUMP JUMPDEST SWAP1 POP SWAP2 SWAP1 POP JUMP JUMPDEST PUSH3 0x23F DUP2 PUSH3 0x221 JUMP JUMPDEST DUP2 EQ PUSH3 0x24A JUMPI PUSH0 DUP1 REVERT JUMPDEST POP JUMP JUMPDEST PUSH0 DUP2 MLOAD SWAP1 POP PUSH3 0x25D DUP2 PUSH3 0x234 JUMP JUMPDEST SWAP3 SWAP2 POP POP JUMP JUMPDEST PUSH0 DUP1 PUSH1 0x40 DUP4 DUP6 SUB SLT ISZERO PUSH3 0x27C JUMPI PUSH3 0x27B PUSH3 0x1C6 JUMP JUMPDEST JUMPDEST PUSH0 PUSH3 0x28B DUP6 DUP3 DUP7 ADD PUSH3 0x1EC JUMP JUMPDEST SWAP3 POP POP PUSH1 0x20 PUSH3 0x29E DUP6 DUP3 DUP7 ADD PUSH3 0x24D JUMP JUMPDEST SWAP2 POP POP SWAP3 POP SWAP3 SWAP1 POP JUMP JUMPDEST PUSH2 0xFD4 DUP1 PUSH3 0x2B6 PUSH0 CODECOPY PUSH0 RETURN INVALID PUSH1 0x80 PUSH1 0x40 MSTORE CALLVALUE DUP1 ISZERO PUSH2 0xF JUMPI PUSH0 DUP1 REVERT JUMPDEST POP PUSH1 0x4 CALLDATASIZE LT PUSH2 0xCD JUMPI PUSH0 CALLDATALOAD PUSH1 0xE0 SHR DUP1 PUSH4 0x7CDE73AD GT PUSH2 0x8A JUMPI DUP1 PUSH4 0xAB5581A1 GT PUSH2 0x64 JUMPI DUP1 PUSH4 0xAB5581A1 EQ PUSH2 0x1C5 JUMPI DUP1 PUSH4 0xDA6BAE10 EQ PUSH2 0x1E3 JUMPI DUP1 PUSH4 0xF212EA72 EQ PUSH2 0x201 JUMPI DUP1 PUSH4 0xF2FDE38B EQ PUSH2 0x20B JUMPI PUSH2 0xCD JUMP JUMPDEST DUP1 PUSH4 0x7CDE73AD EQ PUSH2 0x16D JUMPI DUP1 PUSH4 0x7FFDF53E EQ PUSH2 0x189 JUMPI DUP1 PUSH4 0x8DA5CB5B EQ PUSH2 0x1A7 JUMPI PUSH2 0xCD JUMP JUMPDEST DUP1 PUSH4 0x1ACF5582 EQ PUSH2 0xD1 JUMPI DUP1 PUSH4 0x2601A2C3 EQ PUSH2 0xEF JUMPI DUP1 PUSH4 0x2D02A5B2 EQ PUSH2 0x10D JUMPI DUP1 PUSH4 0x44501404 EQ PUSH2 0x129 JUMPI DUP1 PUSH4 0x560B8A4D EQ PUSH2 0x147 JUMPI DUP1 PUSH4 0x715018A6 EQ PUSH2 0x163 JUMPI JUMPDEST PUSH0 DUP1 REVERT JUMPDEST PUSH2 0xD9 PUSH2 0x227 JUMP JUMPDEST PUSH1 0x40 MLOAD PUSH2 0xE6 SWAP2 SWAP1 PUSH2 0x948 JUMP JUMPDEST PUSH1 0x40 MLOAD DUP1 SWAP2 SUB SWAP1 RETURN JUMPDEST PUSH2 0xF7 PUSH2 0x315 JUMP JUMPDEST PUSH1 0x40 MLOAD PUSH2 0x104 SWAP2 SWAP1 PUSH2 0x9DB JUMP JUMPDEST PUSH1 0x40 MLOAD DUP1 SWAP2 SUB SWAP1 RETURN JUMPDEST PUSH2 0x127 PUSH1 0x4 DUP1 CALLDATASIZE SUB DUP2 ADD SWAP1 PUSH2 0x122 SWAP2 SWAP1 PUSH2 0xA22 JUMP JUMPDEST PUSH2 0x33A JUMP JUMPDEST STOP JUMPDEST PUSH2 0x131 PUSH2 0x38E JUMP JUMPDEST PUSH1 0x40 MLOAD PUSH2 0x13E SWAP2 SWAP1 PUSH2 0x948 JUMP JUMPDEST PUSH1 0x40 MLOAD DUP1 SWAP2 SUB SWAP1 RETURN JUMPDEST PUSH2 0x161 PUSH1 0x4 DUP1 CALLDATASIZE SUB DUP2 ADD SWAP1 PUSH2 0x15C SWAP2 SWAP1 PUSH2 0xA88 JUMP JUMPDEST PUSH2 0x394 JUMP JUMPDEST STOP JUMPDEST PUSH2 0x16B PUSH2 0x4ED JUMP JUMPDEST STOP JUMPDEST PUSH2 0x187 PUSH1 0x4 DUP1 CALLDATASIZE SUB DUP2 ADD SWAP1 PUSH2 0x182 SWAP2 SWAP1 PUSH2 0xA88 JUMP JUMPDEST PUSH2 0x500 JUMP JUMPDEST STOP JUMPDEST PUSH2 0x191 PUSH2 0x659 JUMP JUMPDEST PUSH1 0x40 MLOAD PUSH2 0x19E SWAP2 SWAP1 PUSH2 0x948 JUMP JUMPDEST PUSH1 0x40 MLOAD DUP1 SWAP2 SUB SWAP1 RETURN JUMPDEST PUSH2 0x1AF PUSH2 0x65F JUMP JUMPDEST PUSH1 0x40 MLOAD PUSH2 0x1BC SWAP2 SWAP1 PUSH2 0xAD5 JUMP JUMPDEST PUSH1 0x40 MLOAD DUP1 SWAP2 SUB SWAP1 RETURN JUMPDEST PUSH2 0x1CD PUSH2 0x686 JUMP JUMPDEST PUSH1 0x40 MLOAD PUSH2 0x1DA SWAP2 SWAP1 PUSH2 0xAD5 JUMP JUMPDEST PUSH1 0x40 MLOAD DUP1 SWAP2 SUB SWAP1 RETURN JUMPDEST PUSH2 0x1EB PUSH2 0x6AB JUMP JUMPDEST PUSH1 0x40 MLOAD PUSH2 0x1F8 SWAP2 SWAP1 PUSH2 0x948 JUMP JUMPDEST PUSH1 0x40 MLOAD DUP1 SWAP2 SUB SWAP1 RETURN JUMPDEST PUSH2 0x209 PUSH2 0x6B4 JUMP JUMPDEST STOP JUMPDEST PUSH2 0x225 PUSH1 0x4 DUP1 CALLDATASIZE SUB DUP2 ADD SWAP1 PUSH2 0x220 SWAP2 SWAP1 PUSH2 0xAEE JUMP JUMPDEST PUSH2 0x768 JUMP JUMPDEST STOP JUMPDEST PUSH0 DUP1 PUSH1 0x2 PUSH0 SWAP1 SLOAD SWAP1 PUSH2 0x100 EXP SWAP1 DIV PUSH20 0xFFFFFFFFFFFFFFFFFFFFFFFFFFFFFFFFFFFFFFFF AND PUSH20 0xFFFFFFFFFFFFFFFFFFFFFFFFFFFFFFFFFFFFFFFF AND PUSH4 0xFEAF968C PUSH1 0x40 MLOAD DUP2 PUSH4 0xFFFFFFFF AND PUSH1 0xE0 SHL DUP2 MSTORE PUSH1 0x4 ADD PUSH1 0xA0 PUSH1 0x40 MLOAD DUP1 DUP4 SUB DUP2 DUP7 GAS STATICCALL ISZERO DUP1 ISZERO PUSH2 0x293 JUMPI RETURNDATASIZE PUSH0 DUP1 RETURNDATACOPY RETURNDATASIZE PUSH0 REVERT JUMPDEST POP POP POP POP PUSH1 0x40 MLOAD RETURNDATASIZE PUSH1 0x1F NOT PUSH1 0x1F DUP3 ADD AND DUP3 ADD DUP1 PUSH1 0x40 MSTORE POP DUP2 ADD SWAP1 PUSH2 0x2B7 SWAP2 SWAP1 PUSH2 0xB9F JUMP JUMPDEST POP POP POP SWAP2 POP POP PUSH0 DUP2 SGT PUSH2 0x2FF JUMPI PUSH1 0x40 MLOAD PUSH32 0x8C379A000000000000000000000000000000000000000000000000000000000 DUP2 MSTORE PUSH1 0x4 ADD PUSH2 0x2F6 SWAP1 PUSH2 0xC70 JUMP JUMPDEST PUSH1 0x40 MLOAD DUP1 SWAP2 SUB SWAP1 REVERT JUMPDEST PUSH4 0x5F5E100 DUP2 PUSH2 0x30F SWAP2 SWAP1 PUSH2 0xCE8 JUMP JUMPDEST SWAP2 POP POP SWAP1 JUMP JUMPDEST PUSH1 0x2 PUSH0 SWAP1 SLOAD SWAP1 PUSH2 0x100 EXP SWAP1 DIV PUSH20 0xFFFFFFFFFFFFFFFFFFFFFFFFFFFFFFFFFFFFFFFF AND DUP2 JUMP JUMPDEST PUSH2 0x342 PUSH2 0x7EA JUMP JUMPDEST PUSH0 DUP2 GT PUSH2 0x384 JUMPI PUSH1 0x40 MLOAD PUSH32 0x8C379A000000000000000000000000000000000000000000000000000000000 DUP2 MSTORE PUSH1 0x4 ADD PUSH2 0x37B SWAP1 PUSH2 0xD62 JUMP JUMPDEST PUSH1 0x40 MLOAD DUP1 SWAP2 SUB SWAP1 REVERT JUMPDEST DUP1 PUSH1 0x3 DUP2 SWAP1 SSTORE POP POP JUMP JUMPDEST PUSH1 0x3 SLOAD DUP2 JUMP JUMPDEST DUP2 PUSH20 0xFFFFFFFFFFFFFFFFFFFFFFFFFFFFFFFFFFFFFFFF AND PUSH4 0x23B872DD CALLER ADDRESS PUSH3 0xF4240 DUP6 PUSH2 0x3C1 SWAP2 SWAP1 PUSH2 0xD80 JUMP JUMPDEST PUSH1 0x40 MLOAD DUP5 PUSH4 0xFFFFFFFF AND PUSH1 0xE0 SHL DUP2 MSTORE PUSH1 0x4 ADD PUSH2 0x3DF SWAP4 SWAP3 SWAP2 SWAP1 PUSH2 0xDC1 JUMP JUMPDEST PUSH1 0x20 PUSH1 0x40 MLOAD DUP1 DUP4 SUB DUP2 PUSH0 DUP8 GAS CALL ISZERO DUP1 ISZERO PUSH2 0x3FB JUMPI RETURNDATASIZE PUSH0 DUP1 RETURNDATACOPY RETURNDATASIZE PUSH0 REVERT JUMPDEST POP POP POP POP PUSH1 0x40 MLOAD RETURNDATASIZE PUSH1 0x1F NOT PUSH1 0x1F DUP3 ADD AND DUP3 ADD DUP1 PUSH1 0x40 MSTORE POP DUP2 ADD SWAP1 PUSH2 0x41F SWAP2 SWAP1 PUSH2 0xE2B JUMP JUMPDEST POP PUSH0 PUSH1 0x64 PUSH1 0x1 SLOAD DUP4 PUSH2 0x431 SWAP2 SWAP1 PUSH2 0xD80 JUMP JUMPDEST PUSH2 0x43B SWAP2 SWAP1 PUSH2 0xCE8 JUMP JUMPDEST SWAP1 POP PUSH1 0x4 PUSH0 SWAP1 SLOAD SWAP1 PUSH2 0x100 EXP SWAP1 DIV PUSH20 0xFFFFFFFFFFFFFFFFFFFFFFFFFFFFFFFFFFFFFFFF AND PUSH20 0xFFFFFFFFFFFFFFFFFFFFFFFFFFFFFFFFFFFFFFFF AND PUSH4 0xA9059CBB CALLER PUSH3 0xF4240 DUP5 PUSH2 0x48A SWAP2 SWAP1 PUSH2 0xD80 JUMP JUMPDEST PUSH1 0x40 MLOAD DUP4 PUSH4 0xFFFFFFFF AND PUSH1 0xE0 SHL DUP2 MSTORE PUSH1 0x4 ADD PUSH2 0x4A7 SWAP3 SWAP2 SWAP1 PUSH2 0xE56 JUMP JUMPDEST PUSH1 0x20 PUSH1 0x40 MLOAD DUP1 DUP4 SUB DUP2 PUSH0 DUP8 GAS CALL ISZERO DUP1 ISZERO PUSH2 0x4C3 JUMPI RETURNDATASIZE PUSH0 DUP1 RETURNDATACOPY RETURNDATASIZE PUSH0 REVERT JUMPDEST POP POP POP POP PUSH1 0x40 MLOAD RETURNDATASIZE PUSH1 0x1F NOT PUSH1 0x1F DUP3 ADD AND DUP3 ADD DUP1 PUSH1 0x40 MSTORE POP DUP2 ADD SWAP1 PUSH2 0x4E7 SWAP2 SWAP1 PUSH2 0xE2B JUMP JUMPDEST POP POP POP POP JUMP JUMPDEST PUSH2 0x4F5 PUSH2 0x7EA JUMP JUMPDEST PUSH2 0x4FE PUSH0 PUSH2 0x868 JUMP JUMPDEST JUMP JUMPDEST PUSH1 0x4 PUSH0 SWAP1 SLOAD SWAP1 PUSH2 0x100 EXP SWAP1 DIV PUSH20 0xFFFFFFFFFFFFFFFFFFFFFFFFFFFFFFFFFFFFFFFF AND PUSH20 0xFFFFFFFFFFFFFFFFFFFFFFFFFFFFFFFFFFFFFFFF AND PUSH4 0x23B872DD CALLER ADDRESS PUSH3 0xF4240 DUP6 PUSH2 0x54E SWAP2 SWAP1 PUSH2 0xD80 JUMP JUMPDEST PUSH1 0x40 MLOAD DUP5 PUSH4 0xFFFFFFFF AND PUSH1 0xE0 SHL DUP2 MSTORE PUSH1 0x4 ADD PUSH2 0x56C SWAP4 SWAP3 SWAP2 SWAP1 PUSH2 0xDC1 JUMP JUMPDEST PUSH1 0x20 PUSH1 0x40 MLOAD DUP1 DUP4 SUB DUP2 PUSH0 DUP8 GAS CALL ISZERO DUP1 ISZERO PUSH2 0x588 JUMPI RETURNDATASIZE PUSH0 DUP1 RETURNDATACOPY RETURNDATASIZE PUSH0 REVERT JUMPDEST POP POP POP POP PUSH1 0x40 MLOAD RETURNDATASIZE PUSH1 0x1F NOT PUSH1 0x1F DUP3 ADD AND DUP3 ADD DUP1 PUSH1 0x40 MSTORE POP DUP2 ADD SWAP1 PUSH2 0x5AC SWAP2 SWAP1 PUSH2 0xE2B JUMP JUMPDEST POP PUSH0 PUSH1 0x1 SLOAD PUSH1 0x64 DUP4 PUSH2 0x5BE SWAP2 SWAP1 PUSH2 0xD80 JUMP JUMPDEST PUSH2 0x5C8 SWAP2 SWAP1 PUSH2 0xCE8 JUMP JUMPDEST SWAP1 POP DUP3 PUSH20 0xFFFFFFFFFFFFFFFFFFFFFFFFFFFFFFFFFFFFFFFF AND PUSH4 0xA9059CBB CALLER PUSH3 0xF4240 DUP5 PUSH2 0x5F6 SWAP2 SWAP1 PUSH2 0xD80 JUMP JUMPDEST PUSH1 0x40 MLOAD DUP4 PUSH4 0xFFFFFFFF AND PUSH1 0xE0 SHL DUP2 MSTORE PUSH1 0x4 ADD PUSH2 0x613 SWAP3 SWAP2 SWAP1 PUSH2 0xE56 JUMP JUMPDEST PUSH1 0x20 PUSH1 0x40 MLOAD DUP1 DUP4 SUB DUP2 PUSH0 DUP8 GAS CALL ISZERO DUP1 ISZERO PUSH2 0x62F JUMPI RETURNDATASIZE PUSH0 DUP1 RETURNDATACOPY RETURNDATASIZE PUSH0 REVERT JUMPDEST POP POP POP POP PUSH1 0x40 MLOAD RETURNDATASIZE PUSH1 0x1F NOT PUSH1 0x1F DUP3 ADD AND DUP3 ADD DUP1 PUSH1 0x40 MSTORE POP DUP2 ADD SWAP1 PUSH2 0x653 SWAP2 SWAP1 PUSH2 0xE2B JUMP JUMPDEST POP POP POP POP JUMP JUMPDEST PUSH1 0x1 SLOAD DUP2 JUMP JUMPDEST PUSH0 DUP1 PUSH0 SWAP1 SLOAD SWAP1 PUSH2 0x100 EXP SWAP1 DIV PUSH20 0xFFFFFFFFFFFFFFFFFFFFFFFFFFFFFFFFFFFFFFFF AND SWAP1 POP SWAP1 JUMP JUMPDEST PUSH1 0x4 PUSH0 SWAP1 SLOAD SWAP1 PUSH2 0x100 EXP SWAP1 DIV PUSH20 0xFFFFFFFFFFFFFFFFFFFFFFFFFFFFFFFFFFFFFFFF AND DUP2 JUMP JUMPDEST PUSH0 PUSH1 0x3 SLOAD SWAP1 POP SWAP1 JUMP JUMPDEST PUSH0 PUSH1 0x4 PUSH0 SWAP1 SLOAD SWAP1 PUSH2 0x100 EXP SWAP1 DIV PUSH20 0xFFFFFFFFFFFFFFFFFFFFFFFFFFFFFFFFFFFFFFFF AND PUSH20 0xFFFFFFFFFFFFFFFFFFFFFFFFFFFFFFFFFFFFFFFF AND PUSH4 0xF076E0F1 PUSH1 0x40 MLOAD DUP2 PUSH4 0xFFFFFFFF AND PUSH1 0xE0 SHL DUP2 MSTORE PUSH1 0x4 ADD PUSH1 0x20 PUSH1 0x40 MLOAD DUP1 DUP4 SUB DUP2 DUP7 GAS STATICCALL ISZERO DUP1 ISZERO PUSH2 0x71F JUMPI RETURNDATASIZE PUSH0 DUP1 RETURNDATACOPY RETURNDATASIZE PUSH0 REVERT JUMPDEST POP POP POP POP PUSH1 0x40 MLOAD RETURNDATASIZE PUSH1 0x1F NOT PUSH1 0x1F DUP3 ADD AND DUP3 ADD DUP1 PUSH1 0x40 MSTORE POP DUP2 ADD SWAP1 PUSH2 0x743 SWAP2 SWAP1 PUSH2 0xE7D JUMP JUMPDEST SWAP1 POP DUP1 PUSH1 0x64 PUSH1 0x3 SLOAD PUSH2 0x755 SWAP2 SWAP1 PUSH2 0xD80 JUMP JUMPDEST PUSH2 0x75F SWAP2 SWAP1 PUSH2 0xCE8 JUMP JUMPDEST PUSH1 0x1 DUP2 SWAP1 SSTORE POP POP JUMP JUMPDEST PUSH2 0x770 PUSH2 0x7EA JUMP JUMPDEST PUSH0 PUSH20 0xFFFFFFFFFFFFFFFFFFFFFFFFFFFFFFFFFFFFFFFF AND DUP2 PUSH20 0xFFFFFFFFFFFFFFFFFFFFFFFFFFFFFFFFFFFFFFFF AND SUB PUSH2 0x7DE JUMPI PUSH1 0x40 MLOAD PUSH32 0x8C379A000000000000000000000000000000000000000000000000000000000 DUP2 MSTORE PUSH1 0x4 ADD PUSH2 0x7D5 SWAP1 PUSH2 0xF18 JUMP JUMPDEST PUSH1 0x40 MLOAD DUP1 SWAP2 SUB SWAP1 REVERT JUMPDEST PUSH2 0x7E7 DUP2 PUSH2 0x868 JUMP JUMPDEST POP JUMP JUMPDEST PUSH2 0x7F2 PUSH2 0x929 JUMP JUMPDEST PUSH20 0xFFFFFFFFFFFFFFFFFFFFFFFFFFFFFFFFFFFFFFFF AND PUSH2 0x810 PUSH2 0x65F JUMP JUMPDEST PUSH20 0xFFFFFFFFFFFFFFFFFFFFFFFFFFFFFFFFFFFFFFFF AND EQ PUSH2 0x866 JUMPI PUSH1 0x40 MLOAD PUSH32 0x8C379A000000000000000000000000000000000000000000000000000000000 DUP2 MSTORE PUSH1 0x4 ADD PUSH2 0x85D SWAP1 PUSH2 0xF80 JUMP JUMPDEST PUSH1 0x40 MLOAD DUP1 SWAP2 SUB SWAP1 REVERT JUMPDEST JUMP JUMPDEST PUSH0 DUP1 PUSH0 SWAP1 SLOAD SWAP1 PUSH2 0x100 EXP SWAP1 DIV PUSH20 0xFFFFFFFFFFFFFFFFFFFFFFFFFFFFFFFFFFFFFFFF AND SWAP1 POP DUP2 PUSH0 DUP1 PUSH2 0x100 EXP DUP2 SLOAD DUP2 PUSH20 0xFFFFFFFFFFFFFFFFFFFFFFFFFFFFFFFFFFFFFFFF MUL NOT AND SWAP1 DUP4 PUSH20 0xFFFFFFFFFFFFFFFFFFFFFFFFFFFFFFFFFFFFFFFF AND MUL OR SWAP1 SSTORE POP DUP2 PUSH20 0xFFFFFFFFFFFFFFFFFFFFFFFFFFFFFFFFFFFFFFFF AND DUP2 PUSH20 0xFFFFFFFFFFFFFFFFFFFFFFFFFFFFFFFFFFFFFFFF AND PUSH32 0x8BE0079C531659141344CD1FD0A4F28419497F9722A3DAAFE3B4186F6B6457E0 PUSH1 0x40 MLOAD PUSH1 0x40 MLOAD DUP1 SWAP2 SUB SWAP1 LOG3 POP POP JUMP JUMPDEST PUSH0 CALLER SWAP1 POP SWAP1 JUMP JUMPDEST PUSH0 DUP2 SWAP1 POP SWAP2 SWAP1 POP JUMP JUMPDEST PUSH2 0x942 DUP2 PUSH2 0x930 JUMP JUMPDEST DUP3 MSTORE POP POP JUMP JUMPDEST PUSH0 PUSH1 0x20 DUP3 ADD SWAP1 POP PUSH2 0x95B PUSH0 DUP4 ADD DUP5 PUSH2 0x939 JUMP JUMPDEST SWAP3 SWAP2 POP POP JUMP JUMPDEST PUSH0 PUSH20 0xFFFFFFFFFFFFFFFFFFFFFFFFFFFFFFFFFFFFFFFF DUP3 AND SWAP1 POP SWAP2 SWAP1 POP JUMP JUMPDEST PUSH0 DUP2 SWAP1 POP SWAP2 SWAP1 POP JUMP JUMPDEST PUSH0 PUSH2 0x9A3 PUSH2 0x99E PUSH2 0x999 DUP5 PUSH2 0x961 JUMP JUMPDEST PUSH2 0x980 JUMP JUMPDEST PUSH2 0x961 JUMP JUMPDEST SWAP1 POP SWAP2 SWAP1 POP JUMP JUMPDEST PUSH0 PUSH2 0x9B4 DUP3 PUSH2 0x989 JUMP JUMPDEST SWAP1 POP SWAP2 SWAP1 POP JUMP JUMPDEST PUSH0 PUSH2 0x9C5 DUP3 PUSH2 0x9AA JUMP JUMPDEST SWAP1 POP SWAP2 SWAP1 POP JUMP JUMPDEST PUSH2 0x9D5 DUP2 PUSH2 0x9BB JUMP JUMPDEST DUP3 MSTORE POP POP JUMP JUMPDEST PUSH0 PUSH1 0x20 DUP3 ADD SWAP1 POP PUSH2 0x9EE PUSH0 DUP4 ADD DUP5 PUSH2 0x9CC JUMP JUMPDEST SWAP3 SWAP2 POP POP JUMP JUMPDEST PUSH0 DUP1 REVERT JUMPDEST PUSH2 0xA01 DUP2 PUSH2 0x930 JUMP JUMPDEST DUP2 EQ PUSH2 0xA0B JUMPI PUSH0 DUP1 REVERT JUMPDEST POP JUMP JUMPDEST PUSH0 DUP2 CALLDATALOAD SWAP1 POP PUSH2 0xA1C DUP2 PUSH2 0x9F8 JUMP JUMPDEST SWAP3 SWAP2 POP POP JUMP JUMPDEST PUSH0 PUSH1 0x20 DUP3 DUP5 SUB SLT ISZERO PUSH2 0xA37 JUMPI PUSH2 0xA36 PUSH2 0x9F4 JUMP JUMPDEST JUMPDEST PUSH0 PUSH2 0xA44 DUP5 DUP3 DUP6 ADD PUSH2 0xA0E JUMP JUMPDEST SWAP2 POP POP SWAP3 SWAP2 POP POP JUMP JUMPDEST PUSH0 PUSH2 0xA57 DUP3 PUSH2 0x961 JUMP JUMPDEST SWAP1 POP SWAP2 SWAP1 POP JUMP JUMPDEST PUSH2 0xA67 DUP2 PUSH2 0xA4D JUMP JUMPDEST DUP2 EQ PUSH2 0xA71 JUMPI PUSH0 DUP1 REVERT JUMPDEST POP JUMP JUMPDEST PUSH0 DUP2 CALLDATALOAD SWAP1 POP PUSH2 0xA82 DUP2 PUSH2 0xA5E JUMP JUMPDEST SWAP3 SWAP2 POP POP JUMP JUMPDEST PUSH0 DUP1 PUSH1 0x40 DUP4 DUP6 SUB SLT ISZERO PUSH2 0xA9E JUMPI PUSH2 0xA9D PUSH2 0x9F4 JUMP JUMPDEST JUMPDEST PUSH0 PUSH2 0xAAB DUP6 DUP3 DUP7 ADD PUSH2 0xA74 JUMP JUMPDEST SWAP3 POP POP PUSH1 0x20 PUSH2 0xABC DUP6 DUP3 DUP7 ADD PUSH2 0xA0E JUMP JUMPDEST SWAP2 POP POP SWAP3 POP SWAP3 SWAP1 POP JUMP JUMPDEST PUSH2 0xACF DUP2 PUSH2 0xA4D JUMP JUMPDEST DUP3 MSTORE POP POP JUMP JUMPDEST PUSH0 PUSH1 0x20 DUP3 ADD SWAP1 POP PUSH2 0xAE8 PUSH0 DUP4 ADD DUP5 PUSH2 0xAC6 JUMP JUMPDEST SWAP3 SWAP2 POP POP JUMP JUMPDEST PUSH0 PUSH1 0x20 DUP3 DUP5 SUB SLT ISZERO PUSH2 0xB03 JUMPI PUSH2 0xB02 PUSH2 0x9F4 JUMP JUMPDEST JUMPDEST PUSH0 PUSH2 0xB10 DUP5 DUP3 DUP6 ADD PUSH2 0xA74 JUMP JUMPDEST SWAP2 POP POP SWAP3 SWAP2 POP POP JUMP JUMPDEST PUSH0 PUSH10 0xFFFFFFFFFFFFFFFFFFFF DUP3 AND SWAP1 POP SWAP2 SWAP1 POP JUMP JUMPDEST PUSH2 0xB37 DUP2 PUSH2 0xB19 JUMP JUMPDEST DUP2 EQ PUSH2 0xB41 JUMPI PUSH0 DUP1 REVERT JUMPDEST POP JUMP JUMPDEST PUSH0 DUP2 MLOAD SWAP1 POP PUSH2 0xB52 DUP2 PUSH2 0xB2E JUMP JUMPDEST SWAP3 SWAP2 POP POP JUMP JUMPDEST PUSH0 DUP2 SWAP1 POP SWAP2 SWAP1 POP JUMP JUMPDEST PUSH2 0xB6A DUP2 PUSH2 0xB58 JUMP JUMPDEST DUP2 EQ PUSH2 0xB74 JUMPI PUSH0 DUP1 REVERT JUMPDEST POP JUMP JUMPDEST PUSH0 DUP2 MLOAD SWAP1 POP PUSH2 0xB85 DUP2 PUSH2 0xB61 JUMP JUMPDEST SWAP3 SWAP2 POP POP JUMP JUMPDEST PUSH0 DUP2 MLOAD SWAP1 POP PUSH2 0xB99 DUP2 PUSH2 0x9F8 JUMP JUMPDEST SWAP3 SWAP2 POP POP JUMP JUMPDEST PUSH0 DUP1 PUSH0 DUP1 PUSH0 PUSH1 0xA0 DUP7 DUP9 SUB SLT ISZERO PUSH2 0xBB8 JUMPI PUSH2 0xBB7 PUSH2 0x9F4 JUMP JUMPDEST JUMPDEST PUSH0 PUSH2 0xBC5 DUP9 DUP3 DUP10 ADD PUSH2 0xB44 JUMP JUMPDEST SWAP6 POP POP PUSH1 0x20 PUSH2 0xBD6 DUP9 DUP3 DUP10 ADD PUSH2 0xB77 JUMP JUMPDEST SWAP5 POP POP PUSH1 0x40 PUSH2 0xBE7 DUP9 DUP3 DUP10 ADD PUSH2 0xB8B JUMP JUMPDEST SWAP4 POP POP PUSH1 0x60 PUSH2 0xBF8 DUP9 DUP3 DUP10 ADD PUSH2 0xB8B JUMP JUMPDEST SWAP3 POP POP PUSH1 0x80 PUSH2 0xC09 DUP9 DUP3 DUP10 ADD PUSH2 0xB44 JUMP JUMPDEST SWAP2 POP POP SWAP3 SWAP6 POP SWAP3 SWAP6 SWAP1 SWAP4 POP JUMP JUMPDEST PUSH0 DUP3 DUP3 MSTORE PUSH1 0x20 DUP3 ADD SWAP1 POP SWAP3 SWAP2 POP POP JUMP JUMPDEST PUSH32 0x496E76616C6964205553442070726963652066726F6D20436861696E6C696E6B PUSH0 DUP3 ADD MSTORE POP JUMP JUMPDEST PUSH0 PUSH2 0xC5A PUSH1 0x20 DUP4 PUSH2 0xC16 JUMP JUMPDEST SWAP2 POP PUSH2 0xC65 DUP3 PUSH2 0xC26 JUMP JUMPDEST PUSH1 0x20 DUP3 ADD SWAP1 POP SWAP2 SWAP1 POP JUMP JUMPDEST PUSH0 PUSH1 0x20 DUP3 ADD SWAP1 POP DUP2 DUP2 SUB PUSH0 DUP4 ADD MSTORE PUSH2 0xC87 DUP2 PUSH2 0xC4E JUMP JUMPDEST SWAP1 POP SWAP2 SWAP1 POP JUMP JUMPDEST PUSH32 0x4E487B7100000000000000000000000000000000000000000000000000000000 PUSH0 MSTORE PUSH1 0x12 PUSH1 0x4 MSTORE PUSH1 0x24 PUSH0 REVERT JUMPDEST PUSH32 0x4E487B7100000000000000000000000000000000000000000000000000000000 PUSH0 MSTORE PUSH1 0x11 PUSH1 0x4 MSTORE PUSH1 0x24 PUSH0 REVERT JUMPDEST PUSH0 PUSH2 0xCF2 DUP3 PUSH2 0x930 JUMP JUMPDEST SWAP2 POP PUSH2 0xCFD DUP4 PUSH2 0x930 JUMP JUMPDEST SWAP3 POP DUP3 PUSH2 0xD0D JUMPI PUSH2 0xD0C PUSH2 0xC8E JUMP JUMPDEST JUMPDEST DUP3 DUP3 DIV SWAP1 POP SWAP3 SWAP2 POP POP JUMP JUMPDEST PUSH32 0x496E76616C696420676F6C642070726963650000000000000000000000000000 PUSH0 DUP3 ADD MSTORE POP JUMP JUMPDEST PUSH0 PUSH2 0xD4C PUSH1 0x12 DUP4 PUSH2 0xC16 JUMP JUMPDEST SWAP2 POP PUSH2 0xD57 DUP3 PUSH2 0xD18 JUMP JUMPDEST PUSH1 0x20 DUP3 ADD SWAP1 POP SWAP2 SWAP1 POP JUMP JUMPDEST PUSH0 PUSH1 0x20 DUP3 ADD SWAP1 POP DUP2 DUP2 SUB PUSH0 DUP4 ADD MSTORE PUSH2 0xD79 DUP2 PUSH2 0xD40 JUMP JUMPDEST SWAP1 POP SWAP2 SWAP1 POP JUMP JUMPDEST PUSH0 PUSH2 0xD8A DUP3 PUSH2 0x930 JUMP JUMPDEST SWAP2 POP PUSH2 0xD95 DUP4 PUSH2 0x930 JUMP JUMPDEST SWAP3 POP DUP3 DUP3 MUL PUSH2 0xDA3 DUP2 PUSH2 0x930 JUMP JUMPDEST SWAP2 POP DUP3 DUP3 DIV DUP5 EQ DUP4 ISZERO OR PUSH2 0xDBA JUMPI PUSH2 0xDB9 PUSH2 0xCBB JUMP JUMPDEST JUMPDEST POP SWAP3 SWAP2 POP POP JUMP JUMPDEST PUSH0 PUSH1 0x60 DUP3 ADD SWAP1 POP PUSH2 0xDD4 PUSH0 DUP4 ADD DUP7 PUSH2 0xAC6 JUMP JUMPDEST PUSH2 0xDE1 PUSH1 0x20 DUP4 ADD DUP6 PUSH2 0xAC6 JUMP JUMPDEST PUSH2 0xDEE PUSH1 0x40 DUP4 ADD DUP5 PUSH2 0x939 JUMP JUMPDEST SWAP5 SWAP4 POP POP POP POP JUMP JUMPDEST PUSH0 DUP2 ISZERO ISZERO SWAP1 POP SWAP2 SWAP1 POP JUMP JUMPDEST PUSH2 0xE0A DUP2 PUSH2 0xDF6 JUMP JUMPDEST DUP2 EQ PUSH2 0xE14 JUMPI PUSH0 DUP1 REVERT JUMPDEST POP JUMP JUMPDEST PUSH0 DUP2 MLOAD SWAP1 POP PUSH2 0xE25 DUP2 PUSH2 0xE01 JUMP JUMPDEST SWAP3 SWAP2 POP POP JUMP JUMPDEST PUSH0 PUSH1 0x20 DUP3 DUP5 SUB SLT ISZERO PUSH2 0xE40 JUMPI PUSH2 0xE3F PUSH2 0x9F4 JUMP JUMPDEST JUMPDEST PUSH0 PUSH2 0xE4D DUP5 DUP3 DUP6 ADD PUSH2 0xE17 JUMP JUMPDEST SWAP2 POP POP SWAP3 SWAP2 POP POP JUMP JUMPDEST PUSH0 PUSH1 0x40 DUP3 ADD SWAP1 POP PUSH2 0xE69 PUSH0 DUP4 ADD DUP6 PUSH2 0xAC6 JUMP JUMPDEST PUSH2 0xE76 PUSH1 0x20 DUP4 ADD DUP5 PUSH2 0x939 JUMP JUMPDEST SWAP4 SWAP3 POP POP POP JUMP JUMPDEST PUSH0 PUSH1 0x20 DUP3 DUP5 SUB SLT ISZERO PUSH2 0xE92 JUMPI PUSH2 0xE91 PUSH2 0x9F4 JUMP JUMPDEST JUMPDEST PUSH0 PUSH2 0xE9F DUP5 DUP3 DUP6 ADD PUSH2 0xB8B JUMP JUMPDEST SWAP2 POP POP SWAP3 SWAP2 POP POP JUMP JUMPDEST PUSH32 0x4F776E61626C653A206E6577206F776E657220697320746865207A65726F2061 PUSH0 DUP3 ADD MSTORE PUSH32 0x6464726573730000000000000000000000000000000000000000000000000000 PUSH1 0x20 DUP3 ADD MSTORE POP JUMP JUMPDEST PUSH0 PUSH2 0xF02 PUSH1 0x26 DUP4 PUSH2 0xC16 JUMP JUMPDEST SWAP2 POP PUSH2 0xF0D DUP3 PUSH2 0xEA8 JUMP JUMPDEST PUSH1 0x40 DUP3 ADD SWAP1 POP SWAP2 SWAP1 POP JUMP JUMPDEST PUSH0 PUSH1 0x20 DUP3 ADD SWAP1 POP DUP2 DUP2 SUB PUSH0 DUP4 ADD MSTORE PUSH2 0xF2F DUP2 PUSH2 0xEF6 JUMP JUMPDEST SWAP1 POP SWAP2 SWAP1 POP JUMP JUMPDEST PUSH32 0x4F776E61626C653A2063616C6C6572206973206E6F7420746865206F776E6572 PUSH0 DUP3 ADD MSTORE POP JUMP JUMPDEST PUSH0 PUSH2 0xF6A PUSH1 0x20 DUP4 PUSH2 0xC16 JUMP JUMPDEST SWAP2 POP PUSH2 0xF75 DUP3 PUSH2 0xF36 JUMP JUMPDEST PUSH1 0x20 DUP3 ADD SWAP1 POP SWAP2 SWAP1 POP JUMP JUMPDEST PUSH0 PUSH1 0x20 DUP3 ADD SWAP1 POP DUP2 DUP2 SUB PUSH0 DUP4 ADD MSTORE PUSH2 0xF97 DUP2 PUSH2 0xF5E JUMP JUMPDEST SWAP1 POP SWAP2 SWAP1 POP JUMP INVALID LOG2 PUSH5 0x6970667358 0x22 SLT KECCAK256 0xEF 0xAC DUP13 0x4B GAS 0xED 0xA7 NOT PUSH4 0x85D21493 0xC0 SWAP5 0x24 DUP15 0xCF DUP1 DUP12 0xD0 0xD9 LOG0 CALLCODE SWAP15 XOR MUL BASEFEE 0x4A SWAP7 PUSH4 0x1B64736F PUSH13 0x63430008150033000000000000 "
		},
		"gasEstimates": {
			"creation": {
				"codeDepositCost": "810400",
				"executionCost": "infinite",
				"totalCost": "infinite"
			},
			"external": {
				"conversionRate()": "2470",
				"getGoldPrice()": "2476",
				"getUsdPrice()": "infinite",
				"goldPrice()": "2492",
				"myTokenBAddress()": "2530",
				"owner()": "2582",
				"renounceOwnership()": "30501",
				"setConversionRate()": "infinite",
				"setGoldPrice(uint256)": "24843",
				"swapTokensGoldToUSDT(address,uint256)": "infinite",
				"swapUSDTToGold(address,uint256)": "infinite",
				"transferOwnership(address)": "30819",
				"usdtPriceFeed()": "infinite"
			}
		},
		"methodIdentifiers": {
			"conversionRate()": "7ffdf53e",
			"getGoldPrice()": "da6bae10",
			"getUsdPrice()": "1acf5582",
			"goldPrice()": "44501404",
			"myTokenBAddress()": "ab5581a1",
			"owner()": "8da5cb5b",
			"renounceOwnership()": "715018a6",
			"setConversionRate()": "f212ea72",
			"setGoldPrice(uint256)": "2d02a5b2",
			"swapTokensGoldToUSDT(address,uint256)": "560b8a4d",
			"swapUSDTToGold(address,uint256)": "7cde73ad",
			"transferOwnership(address)": "f2fde38b",
			"usdtPriceFeed()": "2601a2c3"
		}
	},
	"abi": [
		{
			"inputs": [
				{
					"internalType": "uint256",
					"name": "_initialGoldPrice",
					"type": "uint256"
				},
				{
					"internalType": "address",
					"name": "_myTokenBAddress",
					"type": "address"
				}
			],
			"stateMutability": "nonpayable",
			"type": "constructor"
		},
		{
			"anonymous": false,
			"inputs": [
				{
					"indexed": true,
					"internalType": "address",
					"name": "previousOwner",
					"type": "address"
				},
				{
					"indexed": true,
					"internalType": "address",
					"name": "newOwner",
					"type": "address"
				}
			],
			"name": "OwnershipTransferred",
			"type": "event"
		},
		{
			"inputs": [],
			"name": "conversionRate",
			"outputs": [
				{
					"internalType": "uint256",
					"name": "",
					"type": "uint256"
				}
			],
			"stateMutability": "view",
			"type": "function"
		},
		{
			"inputs": [],
			"name": "getGoldPrice",
			"outputs": [
				{
					"internalType": "uint256",
					"name": "",
					"type": "uint256"
				}
			],
			"stateMutability": "view",
			"type": "function"
		},
		{
			"inputs": [],
			"name": "getUsdPrice",
			"outputs": [
				{
					"internalType": "uint256",
					"name": "",
					"type": "uint256"
				}
			],
			"stateMutability": "view",
			"type": "function"
		},
		{
			"inputs": [],
			"name": "goldPrice",
			"outputs": [
				{
					"internalType": "uint256",
					"name": "",
					"type": "uint256"
				}
			],
			"stateMutability": "view",
			"type": "function"
		},
		{
			"inputs": [],
			"name": "myTokenBAddress",
			"outputs": [
				{
					"internalType": "address",
					"name": "",
					"type": "address"
				}
			],
			"stateMutability": "view",
			"type": "function"
		},
		{
			"inputs": [],
			"name": "owner",
			"outputs": [
				{
					"internalType": "address",
					"name": "",
					"type": "address"
				}
			],
			"stateMutability": "view",
			"type": "function"
		},
		{
			"inputs": [],
			"name": "renounceOwnership",
			"outputs": [],
			"stateMutability": "nonpayable",
			"type": "function"
		},
		{
			"inputs": [],
			"name": "setConversionRate",
			"outputs": [],
			"stateMutability": "nonpayable",
			"type": "function"
		},
		{
			"inputs": [
				{
					"internalType": "uint256",
					"name": "_newGoldPrice",
					"type": "uint256"
				}
			],
			"name": "setGoldPrice",
			"outputs": [],
			"stateMutability": "nonpayable",
			"type": "function"
		},
		{
			"inputs": [
				{
					"internalType": "address",
					"name": "_tokenIn",
					"type": "address"
				},
				{
					"internalType": "uint256",
					"name": "_amountIn",
					"type": "uint256"
				}
			],
			"name": "swapTokensGoldToUSDT",
			"outputs": [],
			"stateMutability": "nonpayable",
			"type": "function"
		},
		{
			"inputs": [
				{
					"internalType": "address",
					"name": "_tokenIn",
					"type": "address"
				},
				{
					"internalType": "uint256",
					"name": "_amountIn",
					"type": "uint256"
				}
			],
			"name": "swapUSDTToGold",
			"outputs": [],
			"stateMutability": "nonpayable",
			"type": "function"
		},
		{
			"inputs": [
				{
					"internalType": "address",
					"name": "newOwner",
					"type": "address"
				}
			],
			"name": "transferOwnership",
			"outputs": [],
			"stateMutability": "nonpayable",
			"type": "function"
		},
		{
			"inputs": [],
			"name": "usdtPriceFeed",
			"outputs": [
				{
					"internalType": "contract AggregatorV3Interface",
					"name": "",
					"type": "address"
				}
			],
			"stateMutability": "view",
			"type": "function"
		}
	]
}